{"abi":[{"type":"constructor","inputs":[{"name":"_factory","type":"address","internalType":"address"}],"stateMutability":"nonpayable"},{"type":"receive","stateMutability":"payable"},{"type":"function","name":"BPS_DENOMINATOR","inputs":[],"outputs":[{"name":"","type":"uint256","internalType":"uint256"}],"stateMutability":"view"},{"type":"function","name":"distributeFees","inputs":[{"name":"token","type":"address","internalType":"address"}],"outputs":[],"stateMutability":"payable"},{"type":"function","name":"factory","inputs":[],"outputs":[{"name":"","type":"address","internalType":"address"}],"stateMutability":"view"},{"type":"function","name":"getFeeSplits","inputs":[{"name":"token","type":"address","internalType":"address"}],"outputs":[{"name":"","type":"address[]","internalType":"address[]"},{"name":"","type":"uint256[]","internalType":"uint256[]"}],"stateMutability":"view"},{"type":"function","name":"getPendingAmount","inputs":[{"name":"token","type":"address","internalType":"address"},{"name":"recipient","type":"address","internalType":"address"}],"outputs":[{"name":"","type":"uint256","internalType":"uint256"}],"stateMutability":"view"},{"type":"function","name":"owner","inputs":[],"outputs":[{"name":"","type":"address","internalType":"address"}],"stateMutability":"view"},{"type":"function","name":"pendingWithdrawals","inputs":[{"name":"","type":"address","internalType":"address"},{"name":"","type":"address","internalType":"address"}],"outputs":[{"name":"","type":"uint256","internalType":"uint256"}],"stateMutability":"view"},{"type":"function","name":"setFactory","inputs":[{"name":"_factory","type":"address","internalType":"address"}],"outputs":[],"stateMutability":"nonpayable"},{"type":"function","name":"setFeeSplits","inputs":[{"name":"token","type":"address","internalType":"address"},{"name":"recipients","type":"address[]","internalType":"address[]"},{"name":"splits","type":"uint256[]","internalType":"uint256[]"}],"outputs":[],"stateMutability":"nonpayable"},{"type":"function","name":"transferOwnership","inputs":[{"name":"newOwner","type":"address","internalType":"address"}],"outputs":[],"stateMutability":"nonpayable"},{"type":"function","name":"withdraw","inputs":[{"name":"token","type":"address","internalType":"address"}],"outputs":[],"stateMutability":"nonpayable"},{"type":"function","name":"withdrawAll","inputs":[{"name":"tokens","type":"address[]","internalType":"address[]"}],"outputs":[],"stateMutability":"nonpayable"},{"type":"event","name":"FeesDistributed","inputs":[{"name":"token","type":"address","indexed":true,"internalType":"address"},{"name":"amount","type":"uint256","indexed":false,"internalType":"uint256"}],"anonymous":false},{"type":"event","name":"SplitsUpdated","inputs":[{"name":"token","type":"address","indexed":true,"internalType":"address"},{"name":"recipients","type":"address[]","indexed":false,"internalType":"address[]"},{"name":"splits","type":"uint256[]","indexed":false,"internalType":"uint256[]"}],"anonymous":false},{"type":"event","name":"Withdrawn","inputs":[{"name":"recipient","type":"address","indexed":true,"internalType":"address"},{"name":"amount","type":"uint256","indexed":false,"internalType":"uint256"}],"anonymous":false},{"type":"error","name":"InvalidSplits","inputs":[]},{"type":"error","name":"NothingToWithdraw","inputs":[]},{"type":"error","name":"OnlyFactory","inputs":[]},{"type":"error","name":"OnlyOwner","inputs":[]},{"type":"error","name":"TransferFailed","inputs":[]},{"type":"error","name":"ZeroAddress","inputs":[]}],"bytecode":{"object":"0x608060405234801561000f575f80fd5b50604051610f01380380610f0183398101604081905261002e91610060565b5f8054336001600160a01b031991821617909155600180549091166001600160a01b039290921691909117905561008d565b5f60208284031215610070575f80fd5b81516001600160a01b0381168114610086575f80fd5b9392505050565b610e678061009a5f395ff3fe6080604052600436106100a8575f3560e01c80638da5cb5b116100625780638da5cb5b146101945780639413f25c146101ca578063c45a0155146101dd578063e1a45218146101fc578063e831be5814610211578063f2fde38b14610247575f80fd5b8063188ab59f146100b3578063255761ad146100e957806337079d631461010a57806351cff8d9146101375780635bb47808146101565780636568a27914610175575f80fd5b366100af57005b5f80fd5b3480156100be575f80fd5b506100d26100cd366004610b59565b610266565b6040516100e0929190610b79565b60405180910390f35b3480156100f4575f80fd5b50610108610103366004610c43565b61033a565b005b348015610115575f80fd5b50610129610124366004610cbe565b61056a565b6040519081526020016100e0565b348015610142575f80fd5b50610108610151366004610b59565b610596565b348015610161575f80fd5b50610108610170366004610b59565b61069a565b348015610180575f80fd5b5061010861018f366004610cef565b61070d565b34801561019f575f80fd5b505f546101b2906001600160a01b031681565b6040516001600160a01b0390911681526020016100e0565b6101086101d8366004610b59565b6108a4565b3480156101e8575f80fd5b506001546101b2906001600160a01b031681565b348015610207575f80fd5b5061012961271081565b34801561021c575f80fd5b5061012961022b366004610cbe565b600360209081525f928352604080842090915290825290205481565b348015610252575f80fd5b50610108610261366004610b59565b610a1c565b6001600160a01b0381165f908152600260209081526040918290208054835181840281018401909452808452606093849383926001840192918491908301828280156102d957602002820191905f5260205f20905b81546001600160a01b031681526001909101906020018083116102bb575b505050505091508080548060200260200160405190810160405280929190818152602001828054801561032957602002820191905f5260205f20905b815481526020019060010190808311610315575b505050505090509250925050915091565b6001546001600160a01b0316331461036557604051630636a15760e11b815260040160405180910390fd5b828114610385576040516355195b2160e01b815260040160405180910390fd5b5f8390036103a6576040516355195b2160e01b815260040160405180910390fd5b5f805b82811015610438575f8686838181106103c4576103c4610d2e565b90506020020160208101906103d99190610b59565b6001600160a01b0316036104005760405163d92e233d60e01b815260040160405180910390fd5b83838281811061041257610412610d2e565b90506020020135826104249190610d56565b91508061043081610d69565b9150506103a9565b50612710811461045b576040516355195b2160e01b815260040160405180910390fd5b60405180604001604052808686808060200260200160405190810160405280939291908181526020018383602002808284375f9201919091525050509082525060408051602086810282810182019093528682529283019290918791879182918501908490808284375f9201829052509390945250506001600160a01b0389168152600260209081526040909120835180519193506104fe928492910190610a8e565b5060208281015180516105179260018501920190610af1565b50905050856001600160a01b03167f93334ff5a2feefd6fbc0ce71ef6f3e26170715f8ac4048de6b9d8bae73748d988686868660405161055a9493929190610d81565b60405180910390a2505050505050565b6001600160a01b038083165f908152600360209081526040808320938516835292905220545b92915050565b6001600160a01b0381165f908152600360209081526040808320338452909152812054908190036105da57604051630686827b60e51b815260040160405180910390fd5b6001600160a01b0382165f9081526003602090815260408083203380855292528083208390555183908381818185875af1925050503d805f8114610639576040519150601f19603f3d011682016040523d82523d5f602084013e61063e565b606091505b5050905080610660576040516312171d8360e31b815260040160405180910390fd5b60405182815233907f7084f5476618d8e60b11ef0d7d3f06914655adb8793e28ff7f018d4c76d505d59060200160405180910390a2505050565b5f546001600160a01b031633146106c457604051635fc483c560e01b815260040160405180910390fd5b6001600160a01b0381166106eb5760405163d92e233d60e01b815260040160405180910390fd5b600180546001600160a01b0319166001600160a01b0392909216919091179055565b5f805b828110156107e2575f60035f86868581811061072e5761072e610d2e565b90506020020160208101906107439190610b59565b6001600160a01b0316815260208082019290925260409081015f908120338252909252902054905080156107cf575f60035f87878681811061078757610787610d2e565b905060200201602081019061079c9190610b59565b6001600160a01b0316815260208082019290925260409081015f9081203382529092529020556107cc8184610d56565b92505b50806107da81610d69565b915050610710565b50805f0361080357604051630686827b60e51b815260040160405180910390fd5b6040515f90339083908381818185875af1925050503d805f8114610842576040519150601f19603f3d011682016040523d82523d5f602084013e610847565b606091505b5050905080610869576040516312171d8360e31b815260040160405180910390fd5b60405182815233907f7084f5476618d8e60b11ef0d7d3f06914655adb8793e28ff7f018d4c76d505d59060200160405180910390a250505050565b345f036108ae5750565b6001600160a01b0381165f9081526002602052604081208054909103610911576001600160a01b038083165f908152600360209081526040808320835490941683529290529081208054349290610906908490610d56565b909155506109d59050565b5f5b81548110156109d3575f61271083600101838154811061093557610935610d2e565b905f5260205f200154346109499190610dfb565b6109539190610e12565b6001600160a01b0385165f9081526003602052604081208554929350839290919086908690811061098657610986610d2e565b5f9182526020808320909101546001600160a01b03168352820192909252604001812080549091906109b9908490610d56565b909155508291506109cb905081610d69565b915050610913565b505b816001600160a01b03167f63be20cc905d5ba0cf65db405c4999f99f2575e521875f13a8009d6eed7a09d934604051610a1091815260200190565b60405180910390a25050565b5f546001600160a01b03163314610a4657604051635fc483c560e01b815260040160405180910390fd5b6001600160a01b038116610a6d5760405163d92e233d60e01b815260040160405180910390fd5b5f80546001600160a01b0319166001600160a01b0392909216919091179055565b828054828255905f5260205f20908101928215610ae1579160200282015b82811115610ae157825182546001600160a01b0319166001600160a01b03909116178255602090920191600190910190610aac565b50610aed929150610b2a565b5090565b828054828255905f5260205f20908101928215610ae1579160200282015b82811115610ae1578251825591602001919060010190610b0f565b5b80821115610aed575f8155600101610b2b565b80356001600160a01b0381168114610b54575f80fd5b919050565b5f60208284031215610b69575f80fd5b610b7282610b3e565b9392505050565b604080825283519082018190525f906020906060840190828701845b82811015610bba5781516001600160a01b031684529284019290840190600101610b95565b505050838103828501528451808252858301918301905f5b81811015610bee57835183529284019291840191600101610bd2565b5090979650505050505050565b5f8083601f840112610c0b575f80fd5b50813567ffffffffffffffff811115610c22575f80fd5b6020830191508360208260051b8501011115610c3c575f80fd5b9250929050565b5f805f805f60608688031215610c57575f80fd5b610c6086610b3e565b9450602086013567ffffffffffffffff80821115610c7c575f80fd5b610c8889838a01610bfb565b90965094506040880135915080821115610ca0575f80fd5b50610cad88828901610bfb565b969995985093965092949392505050565b5f8060408385031215610ccf575f80fd5b610cd883610b3e565b9150610ce660208401610b3e565b90509250929050565b5f8060208385031215610d00575f80fd5b823567ffffffffffffffff811115610d16575f80fd5b610d2285828601610bfb565b90969095509350505050565b634e487b7160e01b5f52603260045260245ffd5b634e487b7160e01b5f52601160045260245ffd5b8082018082111561059057610590610d42565b5f60018201610d7a57610d7a610d42565b5060010190565b604080825281018490525f8560608301825b87811015610dc1576001600160a01b03610dac84610b3e565b16825260209283019290910190600101610d93565b5083810360208501528481526001600160fb1b03851115610de0575f80fd5b8460051b915081866020830137016020019695505050505050565b808202811582820484141761059057610590610d42565b5f82610e2c57634e487b7160e01b5f52601260045260245ffd5b50049056fea26469706673582212203869c0a3a17203c4684c0c767887853da2089c795c8e9a1559333909fea2b92164736f6c63430008140033","linkReferences":{}},"methodIdentifiers":{"BPS_DENOMINATOR()":"e1a45218","distributeFees(address)":"9413f25c","factory()":"c45a0155","getFeeSplits(address)":"188ab59f","getPendingAmount(address,address)":"37079d63","owner()":"8da5cb5b","pendingWithdrawals(address,address)":"e831be58","setFactory(address)":"5bb47808","setFeeSplits(address,address[],uint256[])":"255761ad","transferOwnership(address)":"f2fde38b","withdraw(address)":"51cff8d9","withdrawAll(address[])":"6568a279"},"id":29}