{"abi":[{"type":"constructor","inputs":[{"name":"_registry","type":"address","internalType":"address"},{"name":"_battleResolver","type":"address","internalType":"address"}],"stateMutability":"nonpayable"},{"type":"receive","stateMutability":"payable"},{"type":"function","name":"BPS_DENOMINATOR","inputs":[],"outputs":[{"name":"","type":"uint256","internalType":"uint256"}],"stateMutability":"view"},{"type":"function","name":"LOSER_VITALITY_PENALTY_BPS","inputs":[],"outputs":[{"name":"","type":"uint256","internalType":"uint256"}],"stateMutability":"view"},{"type":"function","name":"MIN_STAKE","inputs":[],"outputs":[{"name":"","type":"uint256","internalType":"uint256"}],"stateMutability":"view"},{"type":"function","name":"PENALTY_DURATION","inputs":[],"outputs":[{"name":"","type":"uint256","internalType":"uint256"}],"stateMutability":"view"},{"type":"function","name":"PLATFORM_FEE_BPS","inputs":[],"outputs":[{"name":"","type":"uint256","internalType":"uint256"}],"stateMutability":"view"},{"type":"function","name":"ROUNDS_PER_BATTLE","inputs":[],"outputs":[{"name":"","type":"uint256","internalType":"uint256"}],"stateMutability":"view"},{"type":"function","name":"battleCount","inputs":[],"outputs":[{"name":"","type":"uint256","internalType":"uint256"}],"stateMutability":"view"},{"type":"function","name":"battleResolver","inputs":[],"outputs":[{"name":"","type":"address","internalType":"address"}],"stateMutability":"view"},{"type":"function","name":"battles","inputs":[{"name":"","type":"uint256","internalType":"uint256"}],"outputs":[{"name":"characterA","type":"address","internalType":"address"},{"name":"characterB","type":"address","internalType":"address"},{"name":"poolA","type":"uint256","internalType":"uint256"},{"name":"poolB","type":"uint256","internalType":"uint256"},{"name":"startTime","type":"uint256","internalType":"uint256"},{"name":"roundsCompleted","type":"uint256","internalType":"uint256"},{"name":"winner","type":"address","internalType":"address"},{"name":"status","type":"uint8","internalType":"enum IAliveBattleArena.BattleStatus"}],"stateMutability":"view"},{"type":"function","name":"claimWinnings","inputs":[{"name":"battleId","type":"uint256","internalType":"uint256"}],"outputs":[{"name":"","type":"uint256","internalType":"uint256"}],"stateMutability":"nonpayable"},{"type":"function","name":"claimed","inputs":[{"name":"","type":"uint256","internalType":"uint256"},{"name":"","type":"address","internalType":"address"}],"outputs":[{"name":"","type":"bool","internalType":"bool"}],"stateMutability":"view"},{"type":"function","name":"createBattle","inputs":[{"name":"characterA","type":"address","internalType":"address"},{"name":"characterB","type":"address","internalType":"address"}],"outputs":[{"name":"","type":"uint256","internalType":"uint256"}],"stateMutability":"nonpayable"},{"type":"function","name":"getBattle","inputs":[{"name":"battleId","type":"uint256","internalType":"uint256"}],"outputs":[{"name":"","type":"tuple","internalType":"struct IAliveBattleArena.Battle","components":[{"name":"characterA","type":"address","internalType":"address"},{"name":"characterB","type":"address","internalType":"address"},{"name":"poolA","type":"uint256","internalType":"uint256"},{"name":"poolB","type":"uint256","internalType":"uint256"},{"name":"startTime","type":"uint256","internalType":"uint256"},{"name":"roundsCompleted","type":"uint256","internalType":"uint256"},{"name":"winner","type":"address","internalType":"address"},{"name":"status","type":"uint8","internalType":"enum IAliveBattleArena.BattleStatus"}]}],"stateMutability":"view"},{"type":"function","name":"getEffectiveVitality","inputs":[{"name":"character","type":"address","internalType":"address"}],"outputs":[{"name":"","type":"uint256","internalType":"uint256"}],"stateMutability":"view"},{"type":"function","name":"getStake","inputs":[{"name":"battleId","type":"uint256","internalType":"uint256"},{"name":"staker","type":"address","internalType":"address"},{"name":"character","type":"address","internalType":"address"}],"outputs":[{"name":"","type":"uint256","internalType":"uint256"}],"stateMutability":"view"},{"type":"function","name":"getTotalStake","inputs":[{"name":"battleId","type":"uint256","internalType":"uint256"},{"name":"staker","type":"address","internalType":"address"}],"outputs":[{"name":"","type":"uint256","internalType":"uint256"}],"stateMutability":"view"},{"type":"function","name":"hasVitalityPenalty","inputs":[{"name":"character","type":"address","internalType":"address"}],"outputs":[{"name":"","type":"bool","internalType":"bool"}],"stateMutability":"view"},{"type":"function","name":"owner","inputs":[],"outputs":[{"name":"","type":"address","internalType":"address"}],"stateMutability":"view"},{"type":"function","name":"registry","inputs":[],"outputs":[{"name":"","type":"address","internalType":"address"}],"stateMutability":"view"},{"type":"function","name":"resolveRound","inputs":[{"name":"battleId","type":"uint256","internalType":"uint256"},{"name":"roundWinner","type":"address","internalType":"address"}],"outputs":[],"stateMutability":"nonpayable"},{"type":"function","name":"setBattleResolver","inputs":[{"name":"_resolver","type":"address","internalType":"address"}],"outputs":[],"stateMutability":"nonpayable"},{"type":"function","name":"setRegistry","inputs":[{"name":"_registry","type":"address","internalType":"address"}],"outputs":[],"stateMutability":"nonpayable"},{"type":"function","name":"stake","inputs":[{"name":"battleId","type":"uint256","internalType":"uint256"},{"name":"character","type":"address","internalType":"address"}],"outputs":[],"stateMutability":"payable"},{"type":"function","name":"stakes","inputs":[{"name":"","type":"uint256","internalType":"uint256"},{"name":"","type":"address","internalType":"address"},{"name":"","type":"address","internalType":"address"}],"outputs":[{"name":"","type":"uint256","internalType":"uint256"}],"stateMutability":"view"},{"type":"function","name":"transferOwnership","inputs":[{"name":"newOwner","type":"address","internalType":"address"}],"outputs":[],"stateMutability":"nonpayable"},{"type":"function","name":"vitalityPenaltyUntil","inputs":[{"name":"","type":"address","internalType":"address"}],"outputs":[{"name":"","type":"uint256","internalType":"uint256"}],"stateMutability":"view"},{"type":"event","name":"BattleCreated","inputs":[{"name":"battleId","type":"uint256","indexed":true,"internalType":"uint256"},{"name":"charA","type":"address","indexed":true,"internalType":"address"},{"name":"charB","type":"address","indexed":true,"internalType":"address"}],"anonymous":false},{"type":"event","name":"BattleResolved","inputs":[{"name":"battleId","type":"uint256","indexed":true,"internalType":"uint256"},{"name":"winner","type":"address","indexed":true,"internalType":"address"},{"name":"prizePool","type":"uint256","indexed":false,"internalType":"uint256"}],"anonymous":false},{"type":"event","name":"RoundResolved","inputs":[{"name":"battleId","type":"uint256","indexed":true,"internalType":"uint256"},{"name":"round","type":"uint256","indexed":false,"internalType":"uint256"},{"name":"roundWinner","type":"address","indexed":false,"internalType":"address"}],"anonymous":false},{"type":"event","name":"StakePlaced","inputs":[{"name":"battleId","type":"uint256","indexed":true,"internalType":"uint256"},{"name":"staker","type":"address","indexed":true,"internalType":"address"},{"name":"character","type":"address","indexed":true,"internalType":"address"},{"name":"amount","type":"uint256","indexed":false,"internalType":"uint256"}],"anonymous":false},{"type":"error","name":"AlreadyClaimed","inputs":[]},{"type":"error","name":"BattleAlreadyResolved","inputs":[]},{"type":"error","name":"BattleNotLive","inputs":[]},{"type":"error","name":"BattleNotOpen","inputs":[]},{"type":"error","name":"BattleNotResolved","inputs":[]},{"type":"error","name":"InsufficientStake","inputs":[]},{"type":"error","name":"InvalidCharacter","inputs":[]},{"type":"error","name":"InvalidRoundWinner","inputs":[]},{"type":"error","name":"OnlyOwner","inputs":[]},{"type":"error","name":"OnlyResolver","inputs":[]},{"type":"error","name":"SameCharacter","inputs":[]},{"type":"error","name":"TransferFailed","inputs":[]},{"type":"error","name":"ZeroAddress","inputs":[]}],"bytecode":{"object":"0x608060405234801561000f575f80fd5b5060405161156138038061156183398101604081905261002e91610084565b5f80546001600160a01b03199081163317909155600180546001600160a01b03948516908316179055600280549290931691161790556100b5565b80516001600160a01b038116811461007f575f80fd5b919050565b5f8060408385031215610095575f80fd5b61009e83610069565b91506100ac60208401610069565b90509250929050565b61149f806100c25f395ff3fe60806040526004361061017e575f3560e01c80637b103999116100cd578063c64179c011610087578063e00b636311610062578063e00b63631461052b578063e1a4521814610540578063f1fbd0c714610555578063f2fde38b14610574575f80fd5b8063c64179c0146104d3578063cb1c2b5c146104f2578063d0d7d9c51461050c575f80fd5b80637b103999146103f15780638da5cb5b14610410578063929f6b5d1461042e578063a91ee0dc14610442578063b9ce0f0014610461578063bebb720114610497575f80fd5b80635ca817c3116101385780636dd0ce7a116101135780636dd0ce7a14610348578063791a4034146103745780637aa81c2a146103955780637acb7757146103de575f80fd5b80635ca817c31461027b578063606d2e96146102a6578063677bd9ff14610329575f80fd5b8063117474f514610189578063120aa877146101b25780633d0ebf48146101fb578063474f2f041461021a578063539aa77f1461022f57806357302cd414610244575f80fd5b3661018557005b5f80fd5b348015610194575f80fd5b5061019f6201518081565b6040519081526020015b60405180910390f35b3480156101bd575f80fd5b506101eb6101cc3660046111f6565b600660209081525f928352604080842090915290825290205460ff1681565b60405190151581526020016101a9565b348015610206575f80fd5b5061019f610215366004611220565b610593565b348015610225575f80fd5b5061019f6107d081565b34801561023a575f80fd5b5061019f6101f481565b34801561024f575f80fd5b50600254610263906001600160a01b031681565b6040516001600160a01b0390911681526020016101a9565b348015610286575f80fd5b5061019f610295366004611248565b60076020525f908152604090205481565b3480156102b1575f80fd5b506103156102c0366004611268565b600460208190525f918252604090912080546001820154600283015460038401549484015460058501546006909501546001600160a01b0394851696938516959294919291811690600160a01b900460ff1688565b6040516101a99897969594939291906112b3565b348015610334575f80fd5b5061019f610343366004611268565b610853565b348015610353575f80fd5b50610367610362366004611268565b610a33565b6040516101a9919061130a565b34801561037f575f80fd5b5061039361038e3660046111f6565b610b1f565b005b3480156103a0575f80fd5b5061019f6103af366004611372565b5f9283526005602090815260408085206001600160a01b03948516865282528085209290931684525290205490565b6103936103ec3660046111f6565b610c80565b3480156103fc575f80fd5b50600154610263906001600160a01b031681565b34801561041b575f80fd5b505f54610263906001600160a01b031681565b348015610439575f80fd5b5061019f600581565b34801561044d575f80fd5b5061039361045c366004611248565b610e87565b34801561046c575f80fd5b506101eb61047b366004611248565b6001600160a01b03165f90815260076020526040902054421090565b3480156104a2575f80fd5b5061019f6104b1366004611372565b600560209081525f938452604080852082529284528284209052825290205481565b3480156104de575f80fd5b5061019f6104ed366004611248565b610efa565b3480156104fd575f80fd5b5061019f662386f26fc1000081565b348015610517575f80fd5b50610393610526366004611248565b610fb2565b348015610536575f80fd5b5061019f60035481565b34801561054b575f80fd5b5061019f61271081565b348015610560575f80fd5b5061019f61056f3660046111f6565b611025565b34801561057f575f80fd5b5061039361058e366004611248565b61107d565b5f816001600160a01b0316836001600160a01b0316036105c657604051637641476f60e01b815260040160405180910390fd5b60015460405163c3c5a54760e01b81526001600160a01b0385811660048301529091169063c3c5a54790602401602060405180830381865afa15801561060e573d5f803e3d5ffd5b505050506040513d601f19601f8201168201806040525081019061063291906113ab565b61064f576040516318954fab60e11b815260040160405180910390fd5b60015460405163c3c5a54760e01b81526001600160a01b0384811660048301529091169063c3c5a54790602401602060405180830381865afa158015610697573d5f803e3d5ffd5b505050506040513d601f19601f820116820180604052508101906106bb91906113ab565b6106d8576040516318954fab60e11b815260040160405180910390fd5b5f60035f81546106e7906113de565b9190508190559050604051806101000160405280856001600160a01b03168152602001846001600160a01b031681526020015f81526020015f81526020014281526020015f81526020015f6001600160a01b031681526020015f60038111156107525761075261127f565b90525f82815260046020818152604092839020845181546001600160a01b03199081166001600160a01b03928316178355928601516001830180548516918316919091179055938501516002820155606085015160038083019190915560808601519382019390935560a0850151600582015560c085015160068201805493841691909516908117855560e08601519194919391926001600160a81b0319161790600160a01b90849081111561080a5761080a61127f565b0217905550506040516001600160a01b03808616925086169083907f1a3dc8ed478dab603018a746e90296b10ce7fb11afd5e4aee1feb326ea8bd3bd905f90a490505b92915050565b5f81815260046020526040812060026006820154600160a01b900460ff1660038111156108825761088261127f565b146108a05760405163691f654760e01b815260040160405180910390fd5b5f83815260066020908152604080832033845290915290205460ff16156108da57604051630c8d9eab60e31b815260040160405180910390fd5b5f838152600560209081526040808320338452825280832060068501546001600160a01b031684529091528120549081900361091957505f9392505050565b5f8260030154836002015461092e91906113f6565b835460068501549192505f916001600160a01b0390811691161461095657836003015461095c565b83600201545b90505f61271061096e6101f485611409565b6109789190611420565b90505f610985828561143f565b90505f836109938784611409565b61099d9190611420565b5f8a8152600660209081526040808320338085529252808320805460ff1916600117905551929350909183908381818185875af1925050503d805f81146109ff576040519150601f19603f3d011682016040523d82523d5f602084013e610a04565b606091505b5050905080610a26576040516312171d8360e31b815260040160405180910390fd5b5098975050505050505050565b610a7760408051610100810182525f80825260208201819052918101829052606081018290526080810182905260a0810182905260c081018290529060e082015290565b5f8281526004602081815260409283902083516101008101855281546001600160a01b03908116825260018301548116938201939093526002820154948101949094526003808201546060860152928101546080850152600581015460a0850152600681015491821660c08501529160e0840191600160a01b900460ff1690811115610b0557610b0561127f565b6003811115610b1657610b1661127f565b90525092915050565b6002546001600160a01b03163314610b4a57604051632b910d6d60e11b815260040160405180910390fd5b5f82815260046020526040902060016006820154600160a01b900460ff166003811115610b7957610b7961127f565b14610b975760405163cc224ed560e01b815260040160405180910390fd5b80546001600160a01b03838116911614801590610bc4575060018101546001600160a01b03838116911614155b15610be25760405163ad045f2160e01b815260040160405180910390fd5b6005816005015410610c075760405163100fbc6b60e11b815260040160405180910390fd5b600581018054905f610c18836113de565b90915550506005810154604080519182526001600160a01b038416602083015284917f233b3f5c4bc0c3489fe16642cc313c8a34bcd88a1aa90fd520749f5ee4fe763f910160405180910390a26005816005015410610c7b57610c7b83836110ef565b505050565b5f828152600460205260408120906006820154600160a01b900460ff166003811115610cae57610cae61127f565b14158015610cdc575060016006820154600160a01b900460ff166003811115610cd957610cd961127f565b14155b15610cfa57604051637100718960e01b815260040160405180910390fd5b80546001600160a01b03838116911614801590610d27575060018101546001600160a01b03838116911614155b15610d45576040516318954fab60e11b815260040160405180910390fd5b662386f26fc10000341015610d6d576040516378de4a6960e11b815260040160405180910390fd5b80546001600160a01b0390811690831603610da05734816002015f828254610d9591906113f6565b90915550610db99050565b34816003015f828254610db391906113f6565b90915550505b5f83815260056020908152604080832033845282528083206001600160a01b038616845290915281208054349290610df29084906113f6565b909155505f90506006820154600160a01b900460ff166003811115610e1957610e1961127f565b03610e345760068101805460ff60a01b1916600160a01b1790555b816001600160a01b0316336001600160a01b0316847fe3576dcab69d4f669f519be3bd57c295121b9e26612201d41c1f57797caa658434604051610e7a91815260200190565b60405180910390a4505050565b5f546001600160a01b03163314610eb157604051635fc483c560e01b815260040160405180910390fd5b6001600160a01b038116610ed85760405163d92e233d60e01b815260040160405180910390fd5b600180546001600160a01b0319166001600160a01b0392909216919091179055565b60015460405163b3d78bb160e01b81526001600160a01b0383811660048301525f92839291169063b3d78bb190602401602060405180830381865afa158015610f45573d5f803e3d5ffd5b505050506040513d601f19601f82011682018060405250810190610f699190611452565b6001600160a01b0384165f9081526007602052604090205490915042101561084d575f610f9a6107d061271061143f565b905080821115610fab579392505050565b5092915050565b5f546001600160a01b03163314610fdc57604051635fc483c560e01b815260040160405180910390fd5b6001600160a01b0381166110035760405163d92e233d60e01b815260040160405180910390fd5b600280546001600160a01b0319166001600160a01b0392909216919091179055565b5f828152600460209081526040808320600583528184206001600160a01b0386811686529084528285206001830154821686529093528184205481549093168452908320549091611075916113f6565b949350505050565b5f546001600160a01b031633146110a757604051635fc483c560e01b815260040160405180910390fd5b6001600160a01b0381166110ce5760405163d92e233d60e01b815260040160405180910390fd5b5f80546001600160a01b0319166001600160a01b0392909216919091179055565b5f8281526004602052604081206006810180546001600160a01b038581166001600160a81b03199092168217600160a11b179092558254929392909116146111415781546001600160a01b0316611150565b60018201546001600160a01b03165b905061115f62015180426113f6565b6001600160a01b0382165f908152600760205260408120919091556003830154600284015461118e91906113f6565b9050836001600160a01b0316857fc85097f9623f9aa19887350307755ffa817b32afe05876349bc770aae879e3d8836040516111cc91815260200190565b60405180910390a35050505050565b80356001600160a01b03811681146111f1575f80fd5b919050565b5f8060408385031215611207575f80fd5b82359150611217602084016111db565b90509250929050565b5f8060408385031215611231575f80fd5b61123a836111db565b9150611217602084016111db565b5f60208284031215611258575f80fd5b611261826111db565b9392505050565b5f60208284031215611278575f80fd5b5035919050565b634e487b7160e01b5f52602160045260245ffd5b600481106112af57634e487b7160e01b5f52602160045260245ffd5b9052565b6001600160a01b038981168252888116602083015260408201889052606082018790526080820186905260a08201859052831660c082015261010081016112fd60e0830184611293565b9998505050505050505050565b5f6101008201905060018060a01b0380845116835280602085015116602084015260408401516040840152606084015160608401526080840151608084015260a084015160a08401528060c08501511660c08401525060e0830151610fab60e0840182611293565b5f805f60608486031215611384575f80fd5b83359250611394602085016111db565b91506113a2604085016111db565b90509250925092565b5f602082840312156113bb575f80fd5b81518015158114611261575f80fd5b634e487b7160e01b5f52601160045260245ffd5b5f600182016113ef576113ef6113ca565b5060010190565b8082018082111561084d5761084d6113ca565b808202811582820484141761084d5761084d6113ca565b5f8261143a57634e487b7160e01b5f52601260045260245ffd5b500490565b8181038181111561084d5761084d6113ca565b5f60208284031215611462575f80fd5b505191905056fea2646970667358221220ea746467e73262e58eb254673beac438e7df14f482f4e10831fa3a34fa91e46364736f6c63430008140033","linkReferences":{}},"methodIdentifiers":{"BPS_DENOMINATOR()":"e1a45218","LOSER_VITALITY_PENALTY_BPS()":"474f2f04","MIN_STAKE()":"cb1c2b5c","PENALTY_DURATION()":"117474f5","PLATFORM_FEE_BPS()":"539aa77f","ROUNDS_PER_BATTLE()":"929f6b5d","battleCount()":"e00b6363","battleResolver()":"57302cd4","battles(uint256)":"606d2e96","claimWinnings(uint256)":"677bd9ff","claimed(uint256,address)":"120aa877","createBattle(address,address)":"3d0ebf48","getBattle(uint256)":"6dd0ce7a","getEffectiveVitality(address)":"c64179c0","getStake(uint256,address,address)":"7aa81c2a","getTotalStake(uint256,address)":"f1fbd0c7","hasVitalityPenalty(address)":"b9ce0f00","owner()":"8da5cb5b","registry()":"7b103999","resolveRound(uint256,address)":"791a4034","setBattleResolver(address)":"d0d7d9c5","setRegistry(address)":"a91ee0dc","stake(uint256,address)":"7acb7757","stakes(uint256,address,address)":"bebb7201","transferOwnership(address)":"f2fde38b","vitalityPenaltyUntil(address)":"5ca817c3"},"id":26}