{"abi":[{"type":"constructor","inputs":[{"name":"_factory","type":"address","internalType":"address"},{"name":"_registry","type":"address","internalType":"address"},{"name":"_feeSplitter","type":"address","internalType":"address"}],"stateMutability":"nonpayable"},{"type":"receive","stateMutability":"payable"},{"type":"function","name":"BPS_DENOMINATOR","inputs":[],"outputs":[{"name":"","type":"uint256","internalType":"uint256"}],"stateMutability":"view"},{"type":"function","name":"GRADUATION_THRESHOLD","inputs":[],"outputs":[{"name":"","type":"uint256","internalType":"uint256"}],"stateMutability":"view"},{"type":"function","name":"K","inputs":[],"outputs":[{"name":"","type":"uint256","internalType":"uint256"}],"stateMutability":"view"},{"type":"function","name":"TOTAL_SUPPLY","inputs":[],"outputs":[{"name":"","type":"uint256","internalType":"uint256"}],"stateMutability":"view"},{"type":"function","name":"TRADING_FEE_BPS","inputs":[],"outputs":[{"name":"","type":"uint256","internalType":"uint256"}],"stateMutability":"view"},{"type":"function","name":"buy","inputs":[{"name":"token","type":"address","internalType":"address"},{"name":"minTokensOut","type":"uint256","internalType":"uint256"}],"outputs":[{"name":"","type":"uint256","internalType":"uint256"}],"stateMutability":"payable"},{"type":"function","name":"factory","inputs":[],"outputs":[{"name":"","type":"address","internalType":"address"}],"stateMutability":"view"},{"type":"function","name":"feeSplitter","inputs":[],"outputs":[{"name":"","type":"address","internalType":"address"}],"stateMutability":"view"},{"type":"function","name":"getMarketCap","inputs":[{"name":"token","type":"address","internalType":"address"}],"outputs":[{"name":"","type":"uint256","internalType":"uint256"}],"stateMutability":"view"},{"type":"function","name":"getOkbForTokens","inputs":[{"name":"token","type":"address","internalType":"address"},{"name":"tokenAmount","type":"uint256","internalType":"uint256"}],"outputs":[{"name":"","type":"uint256","internalType":"uint256"}],"stateMutability":"view"},{"type":"function","name":"getPrice","inputs":[{"name":"token","type":"address","internalType":"address"}],"outputs":[{"name":"","type":"uint256","internalType":"uint256"}],"stateMutability":"view"},{"type":"function","name":"getTokensForOkb","inputs":[{"name":"token","type":"address","internalType":"address"},{"name":"okbAmount","type":"uint256","internalType":"uint256"}],"outputs":[{"name":"","type":"uint256","internalType":"uint256"}],"stateMutability":"view"},{"type":"function","name":"initializeToken","inputs":[{"name":"token","type":"address","internalType":"address"},{"name":"initialBuy","type":"uint256","internalType":"uint256"},{"name":"creator","type":"address","internalType":"address"}],"outputs":[],"stateMutability":"payable"},{"type":"function","name":"owner","inputs":[],"outputs":[{"name":"","type":"address","internalType":"address"}],"stateMutability":"view"},{"type":"function","name":"registry","inputs":[],"outputs":[{"name":"","type":"address","internalType":"address"}],"stateMutability":"view"},{"type":"function","name":"sell","inputs":[{"name":"token","type":"address","internalType":"address"},{"name":"tokenAmount","type":"uint256","internalType":"uint256"},{"name":"minOkbOut","type":"uint256","internalType":"uint256"}],"outputs":[{"name":"","type":"uint256","internalType":"uint256"}],"stateMutability":"nonpayable"},{"type":"function","name":"setFeeSplitter","inputs":[{"name":"_feeSplitter","type":"address","internalType":"address"}],"outputs":[],"stateMutability":"nonpayable"},{"type":"function","name":"tokenReserve","inputs":[{"name":"","type":"address","internalType":"address"}],"outputs":[{"name":"","type":"uint256","internalType":"uint256"}],"stateMutability":"view"},{"type":"function","name":"tokenSupply","inputs":[{"name":"","type":"address","internalType":"address"}],"outputs":[{"name":"","type":"uint256","internalType":"uint256"}],"stateMutability":"view"},{"type":"event","name":"Buy","inputs":[{"name":"buyer","type":"address","indexed":true,"internalType":"address"},{"name":"token","type":"address","indexed":true,"internalType":"address"},{"name":"okbAmount","type":"uint256","indexed":false,"internalType":"uint256"},{"name":"tokenAmount","type":"uint256","indexed":false,"internalType":"uint256"},{"name":"newVitality","type":"uint256","indexed":false,"internalType":"uint256"}],"anonymous":false},{"type":"event","name":"Graduated","inputs":[{"name":"token","type":"address","indexed":true,"internalType":"address"},{"name":"lpPair","type":"address","indexed":true,"internalType":"address"},{"name":"liquidity","type":"uint256","indexed":false,"internalType":"uint256"}],"anonymous":false},{"type":"event","name":"Sell","inputs":[{"name":"seller","type":"address","indexed":true,"internalType":"address"},{"name":"token","type":"address","indexed":true,"internalType":"address"},{"name":"tokenAmount","type":"uint256","indexed":false,"internalType":"uint256"},{"name":"okbAmount","type":"uint256","indexed":false,"internalType":"uint256"},{"name":"newVitality","type":"uint256","indexed":false,"internalType":"uint256"}],"anonymous":false},{"type":"error","name":"AlreadyGraduated","inputs":[]},{"type":"error","name":"InsufficientBalance","inputs":[]},{"type":"error","name":"InsufficientOutput","inputs":[]},{"type":"error","name":"InsufficientPayment","inputs":[]},{"type":"error","name":"InvalidToken","inputs":[]},{"type":"error","name":"OnlyFactory","inputs":[]},{"type":"error","name":"OnlyOwner","inputs":[]},{"type":"error","name":"TransferFailed","inputs":[]},{"type":"error","name":"ZeroAmount","inputs":[]}],"bytecode":{"object":"0x60c060405234801562000010575f80fd5b50604051620017af380380620017af83398101604081905262000033916200008b565b6001600160a01b0392831660805290821660a0525f8054919092166001600160a01b0319918216179091556001805490911633179055620000d2565b80516001600160a01b038116811462000086575f80fd5b919050565b5f805f606084860312156200009e575f80fd5b620000a9846200006f565b9250620000b9602085016200006f565b9150620000c9604085016200006f565b90509250925092565b60805160a051611667620001485f395f81816101f601528181610509015281816105b0015281816109060152818161099401528181610a4201528181610b9901528181610c4001528181610ea401528181610f3201528181610fdf015261117c01525f81816102c1015261042d01526116675ff3fe608060405260043610610113575f3560e01c8063b17fb9d61161009d578063dd4d7bf711610062578063dd4d7bf71461032a578063e1a452181461033e578063e643792e14610353578063ec7dd4211461037e578063fcfc0c091461039d575f80fd5b8063b17fb9d614610272578063b5e90d4e14610291578063c45a0155146102b0578063cce7ec13146102e3578063d146d31d146102f6575f80fd5b80636a272462116100e35780636a272462146101c65780637b103999146101e55780638da5cb5b14610218578063902d55a514610237578063a932492f14610256575f80fd5b806341976e091461011e57806354d39008146101505780635e22f2721461017b5780636052970c14610190575f80fd5b3661011a57005b5f80fd5b348015610129575f80fd5b5061013d6101383660046112d0565b6103b9565b6040519081526020015b60405180910390f35b34801561015b575f80fd5b5061013d61016a3660046112d0565b60036020525f908152604090205481565b61018e6101893660046112f2565b610422565b005b34801561019b575f80fd5b505f546101ae906001600160a01b031681565b6040516001600160a01b039091168152602001610147565b3480156101d1575f80fd5b5061013d6101e0366004611331565b6104c9565b3480156101f0575f80fd5b506101ae7f000000000000000000000000000000000000000000000000000000000000000081565b348015610223575f80fd5b506001546101ae906001600160a01b031681565b348015610242575f80fd5b5061013d6b033b2e3c9fd0803ce800000081565b348015610261575f80fd5b5061013d6801a055690d9db8000081565b34801561027d575f80fd5b5061018e61028c3660046112d0565b610af9565b34801561029c575f80fd5b5061013d6102ab366004611363565b610b45565b3480156102bb575f80fd5b506101ae7f000000000000000000000000000000000000000000000000000000000000000081565b61013d6102f1366004611363565b610b59565b348015610301575f80fd5b5061013d6103103660046112d0565b6001600160a01b03165f9081526003602052604090205490565b348015610335575f80fd5b5061013d606481565b348015610349575f80fd5b5061013d61271081565b34801561035e575f80fd5b5061013d61036d3660046112d0565b60026020525f908152604090205481565b348015610389575f80fd5b5061013d610398366004611363565b610cdd565b3480156103a8575f80fd5b5061013d68056bc75e2d6310000081565b6001600160a01b0381165f90815260036020526040812054816103e56801a055690d9db80000836113a1565b90506103f181806113b4565b6104106b033b2e3c9fd0803ce80000006801a055690d9db800006113b4565b61041a91906113cb565b949350505050565b336001600160a01b037f0000000000000000000000000000000000000000000000000000000000000000161461046b57604051630636a15760e11b815260040160405180910390fd5b8134101561048c5760405163cd1c886760e01b815260040160405180910390fd5b6001600160a01b0383165f908152600260209081526040808320839055600390915281205581156104c4576104c2838284610ce8565b505b505050565b5f825f036104ea57604051631f2a200560e01b815260040160405180910390fd5b60405163c3c5a54760e01b81526001600160a01b0385811660048301527f0000000000000000000000000000000000000000000000000000000000000000169063c3c5a54790602401602060405180830381865afa15801561054e573d5f803e3d5ffd5b505050506040513d601f19601f8201168201806040525081019061057291906113fe565b61058f5760405163c1ab6dc160e01b815260040160405180910390fd5b604051633af4324760e21b81526001600160a01b0385811660048301525f917f00000000000000000000000000000000000000000000000000000000000000009091169063ebd0c91c906024015f60405180830381865afa1580156105f6573d5f803e3d5ffd5b505050506040513d5f823e601f3d908101601f1916820160405261061d9190810190611511565b90508060e00151156106425760405163e6a0d45f60e01b815260040160405180910390fd5b6040516370a0823160e01b815233600482015284906001600160a01b038716906370a0823190602401602060405180830381865afa158015610686573d5f803e3d5ffd5b505050506040513d601f19601f820116820180604052508101906106aa9190611607565b10156106c957604051631e9acf1760e31b815260040160405180910390fd5b5f6106d486866110c4565b9050838110156106f75760405163bb2875c360e01b815260040160405180910390fd5b5f6127106107066064846113b4565b61071091906113cb565b90505f61071d828461161e565b6001600160a01b0389165f9081526002602052604081208054929350899290919061074990849061161e565b90915550506001600160a01b0388165f908152600360205260408120805485929061077590849061161e565b90915550506040516323b872dd60e01b8152336004820152306024820152604481018890526001600160a01b038916906323b872dd906064016020604051808303815f875af11580156107ca573d5f803e3d5ffd5b505050506040513d601f19601f820116820180604052508101906107ee91906113fe565b506040515f90339083908381818185875af1925050503d805f811461082e576040519150601f19603f3d011682016040523d82523d5f602084013e610833565b606091505b5050905080610855576040516312171d8360e31b815260040160405180910390fd5b5f8311801561086d57505f546001600160a01b031615155b156108e5575f80546040516001600160a01b039091169085908381818185875af1925050503d805f81146108bc576040519150601f19603f3d011682016040523d82523d5f602084013e6108c1565b606091505b50509050806108e3576040516312171d8360e31b815260040160405180910390fd5b505b60405163b3d78bb160e01b81526001600160a01b038a811660048301525f917f00000000000000000000000000000000000000000000000000000000000000009091169063b3d78bb190602401602060405180830381865afa15801561094d573d5f803e3d5ffd5b505050506040513d601f19601f820116820180604052508101906109719190611607565b604051633499a5af60e01b8152600481018790529091505f906001600160a01b037f00000000000000000000000000000000000000000000000000000000000000001690633499a5af90602401602060405180830381865afa1580156109d9573d5f803e3d5ffd5b505050506040513d601f19601f820116820180604052508101906109fd9190611607565b90505f82821015610a1757610a12828461161e565b610a19565b5f5b604051632e922ec360e21b81526001600160a01b038e81166004830152602482018390529192507f00000000000000000000000000000000000000000000000000000000000000009091169063ba48bb0c906044015f604051808303815f87803b158015610a85575f80fd5b505af1158015610a97573d5f803e3d5ffd5b5050604080518e8152602081018990529081018490526001600160a01b038f1692503391507f01fbb57444511e3de5b26ac09ad6bec45c3f9a1e59dd4a0f2b13a240d18476ce9060600160405180910390a350929a9950505050505050505050565b6001546001600160a01b03163314610b2457604051635fc483c560e01b815260040160405180910390fd5b5f80546001600160a01b0319166001600160a01b0392909216919091179055565b5f610b5083836110c4565b90505b92915050565b5f345f03610b7a57604051631f2a200560e01b815260040160405180910390fd5b60405163c3c5a54760e01b81526001600160a01b0384811660048301527f0000000000000000000000000000000000000000000000000000000000000000169063c3c5a54790602401602060405180830381865afa158015610bde573d5f803e3d5ffd5b505050506040513d601f19601f82011682018060405250810190610c0291906113fe565b610c1f5760405163c1ab6dc160e01b815260040160405180910390fd5b604051633af4324760e21b81526001600160a01b0384811660048301525f917f00000000000000000000000000000000000000000000000000000000000000009091169063ebd0c91c906024015f60405180830381865afa158015610c86573d5f803e3d5ffd5b505050506040513d5f823e601f3d908101601f19168201604052610cad9190810190611511565b90508060e0015115610cd25760405163e6a0d45f60e01b815260040160405180910390fd5b61041a843334610ce8565b5f610b508383611116565b5f80612710610cf86064856113b4565b610d0291906113cb565b90505f610d0f828561161e565b90505f610d1c8783611116565b9050805f03610d3e57604051631f2a200560e01b815260040160405180910390fd5b6001600160a01b0387165f9081526002602052604081208054839290610d659084906113a1565b90915550506001600160a01b0387165f9081526003602052604081208054849290610d919084906113a1565b90915550506040516340c10f1960e01b81526001600160a01b038781166004830152602482018390528816906340c10f19906044015f604051808303815f87803b158015610ddd575f80fd5b505af1158015610def573d5f803e3d5ffd5b505050505f83118015610e0b57505f546001600160a01b031615155b15610e83575f80546040516001600160a01b039091169085908381818185875af1925050503d805f8114610e5a576040519150601f19603f3d011682016040523d82523d5f602084013e610e5f565b606091505b5050905080610e81576040516312171d8360e31b815260040160405180910390fd5b505b60405163b3d78bb160e01b81526001600160a01b0388811660048301525f917f00000000000000000000000000000000000000000000000000000000000000009091169063b3d78bb190602401602060405180830381865afa158015610eeb573d5f803e3d5ffd5b505050506040513d601f19601f82011682018060405250810190610f0f9190611607565b6040516306c6345560e01b8152600481018890529091505f906001600160a01b037f000000000000000000000000000000000000000000000000000000000000000016906306c6345590602401602060405180830381865afa158015610f77573d5f803e3d5ffd5b505050506040513d601f19601f82011682018060405250810190610f9b9190611607565b90505f610fa882846113a1565b9050612710811115610fb957506127105b604051632e922ec360e21b81526001600160a01b038b81166004830152602482018390527f0000000000000000000000000000000000000000000000000000000000000000169063ba48bb0c906044015f604051808303815f87803b158015611020575f80fd5b505af1158015611032573d5f803e3d5ffd5b505050506001600160a01b038a165f9081526003602052604090205468056bc75e2d6310000011611066576110668a61115d565b60408051898152602081018690529081018290526001600160a01b03808c1691908b16907ef93dbdb72854b6b6fb35433086556f2635fc83c37080c667496fecfa650fb49060600160405180910390a3509198975050505050505050565b6001600160a01b0382165f90815260026020526040812054816110e7848361161e565b90505f6110f383611224565b90505f6110ff83611224565b905061110b818361161e565b979650505050505050565b6001600160a01b0382165f908152600360205260408120548161113984836113a1565b90505f61114583611281565b90505f61115183611281565b905061110b828261161e565b6040516328261c9960e21b81526001600160a01b0382811660048301527f0000000000000000000000000000000000000000000000000000000000000000169063a0987264906024015f604051808303815f87803b1580156111bd575f80fd5b505af11580156111cf573d5f803e3d5ffd5b505050506001600160a01b0381165f8181526003602090815260408083205490519081529192917fc80e4bc2e24e04790ada4491d25a0af02878a6351bd22acaf7555be1d0da9b11910160405180910390a350565b5f815f0361123357505f919050565b6b033b2e3c9fd0803ce8000000821061124e57505f19919050565b611264826b033b2e3c9fd0803ce800000061161e565b611277836801a055690d9db800006113b4565b610b5391906113cb565b5f815f0361129057505f919050565b6112a36801a055690d9db80000836113a1565b611277836b033b2e3c9fd0803ce80000006113b4565b6001600160a01b03811681146112cd575f80fd5b50565b5f602082840312156112e0575f80fd5b81356112eb816112b9565b9392505050565b5f805f60608486031215611304575f80fd5b833561130f816112b9565b9250602084013591506040840135611326816112b9565b809150509250925092565b5f805f60608486031215611343575f80fd5b833561134e816112b9565b95602085013595506040909401359392505050565b5f8060408385031215611374575f80fd5b823561137f816112b9565b946020939093013593505050565b634e487b7160e01b5f52601160045260245ffd5b80820180821115610b5357610b5361138d565b8082028115828204841417610b5357610b5361138d565b5f826113e557634e487b7160e01b5f52601260045260245ffd5b500490565b805180151581146113f9575f80fd5b919050565b5f6020828403121561140e575f80fd5b610b50826113ea565b634e487b7160e01b5f52604160045260245ffd5b604051610100810167ffffffffffffffff8111828210171561144f5761144f611417565b60405290565b604051601f8201601f1916810167ffffffffffffffff8111828210171561147e5761147e611417565b604052919050565b80516113f9816112b9565b5f82601f8301126114a0575f80fd5b815167ffffffffffffffff8111156114ba576114ba611417565b60206114ce601f8301601f19168201611455565b82815285828487010111156114e1575f80fd5b5f5b838110156114fe5785810183015182820184015282016114e3565b505f928101909101919091529392505050565b5f60208284031215611521575f80fd5b815167ffffffffffffffff80821115611538575f80fd5b90830190610100828603121561154c575f80fd5b61155461142b565b61155d83611486565b8152602083015182811115611570575f80fd5b61157c87828601611491565b602083015250604083015182811115611593575f80fd5b61159f87828601611491565b6040830152506060830151828111156115b6575f80fd5b6115c287828601611491565b6060830152506115d460808401611486565b608082015260a083015160a082015260c083015160c08201526115f960e084016113ea565b60e082015295945050505050565b5f60208284031215611617575f80fd5b5051919050565b81810381811115610b5357610b5361138d56fea26469706673582212200562e88e0f01eb345b306b676f78e7831ae1a5c3238beeca0483f3fdab5a023564736f6c63430008140033","linkReferences":{}},"methodIdentifiers":{"BPS_DENOMINATOR()":"e1a45218","GRADUATION_THRESHOLD()":"fcfc0c09","K()":"a932492f","TOTAL_SUPPLY()":"902d55a5","TRADING_FEE_BPS()":"dd4d7bf7","buy(address,uint256)":"cce7ec13","factory()":"c45a0155","feeSplitter()":"6052970c","getMarketCap(address)":"d146d31d","getOkbForTokens(address,uint256)":"b5e90d4e","getPrice(address)":"41976e09","getTokensForOkb(address,uint256)":"ec7dd421","initializeToken(address,uint256,address)":"5e22f272","owner()":"8da5cb5b","registry()":"7b103999","sell(address,uint256,uint256)":"6a272462","setFeeSplitter(address)":"b17fb9d6","tokenReserve(address)":"54d39008","tokenSupply(address)":"e643792e"},"id":27}