{"abi":[{"type":"constructor","inputs":[{"name":"name_","type":"string","internalType":"string"},{"name":"symbol_","type":"string","internalType":"string"},{"name":"factory_","type":"address","internalType":"address"},{"name":"bondingCurve_","type":"address","internalType":"address"}],"stateMutability":"nonpayable"},{"type":"function","name":"allowance","inputs":[{"name":"owner","type":"address","internalType":"address"},{"name":"spender","type":"address","internalType":"address"}],"outputs":[{"name":"","type":"uint256","internalType":"uint256"}],"stateMutability":"view"},{"type":"function","name":"approve","inputs":[{"name":"spender","type":"address","internalType":"address"},{"name":"value","type":"uint256","internalType":"uint256"}],"outputs":[{"name":"","type":"bool","internalType":"bool"}],"stateMutability":"nonpayable"},{"type":"function","name":"balanceOf","inputs":[{"name":"account","type":"address","internalType":"address"}],"outputs":[{"name":"","type":"uint256","internalType":"uint256"}],"stateMutability":"view"},{"type":"function","name":"bondingCurve","inputs":[],"outputs":[{"name":"","type":"address","internalType":"address"}],"stateMutability":"view"},{"type":"function","name":"burn","inputs":[{"name":"amount","type":"uint256","internalType":"uint256"}],"outputs":[],"stateMutability":"nonpayable"},{"type":"function","name":"decimals","inputs":[],"outputs":[{"name":"","type":"uint8","internalType":"uint8"}],"stateMutability":"view"},{"type":"function","name":"factory","inputs":[],"outputs":[{"name":"","type":"address","internalType":"address"}],"stateMutability":"view"},{"type":"function","name":"mint","inputs":[{"name":"to","type":"address","internalType":"address"},{"name":"amount","type":"uint256","internalType":"uint256"}],"outputs":[],"stateMutability":"nonpayable"},{"type":"function","name":"name","inputs":[],"outputs":[{"name":"","type":"string","internalType":"string"}],"stateMutability":"view"},{"type":"function","name":"symbol","inputs":[],"outputs":[{"name":"","type":"string","internalType":"string"}],"stateMutability":"view"},{"type":"function","name":"totalSupply","inputs":[],"outputs":[{"name":"","type":"uint256","internalType":"uint256"}],"stateMutability":"view"},{"type":"function","name":"transfer","inputs":[{"name":"to","type":"address","internalType":"address"},{"name":"value","type":"uint256","internalType":"uint256"}],"outputs":[{"name":"","type":"bool","internalType":"bool"}],"stateMutability":"nonpayable"},{"type":"function","name":"transferFrom","inputs":[{"name":"from","type":"address","internalType":"address"},{"name":"to","type":"address","internalType":"address"},{"name":"value","type":"uint256","internalType":"uint256"}],"outputs":[{"name":"","type":"bool","internalType":"bool"}],"stateMutability":"nonpayable"},{"type":"event","name":"Approval","inputs":[{"name":"owner","type":"address","indexed":true,"internalType":"address"},{"name":"spender","type":"address","indexed":true,"internalType":"address"},{"name":"value","type":"uint256","indexed":false,"internalType":"uint256"}],"anonymous":false},{"type":"event","name":"Transfer","inputs":[{"name":"from","type":"address","indexed":true,"internalType":"address"},{"name":"to","type":"address","indexed":true,"internalType":"address"},{"name":"value","type":"uint256","indexed":false,"internalType":"uint256"}],"anonymous":false},{"type":"error","name":"ERC20InsufficientAllowance","inputs":[{"name":"spender","type":"address","internalType":"address"},{"name":"allowance","type":"uint256","internalType":"uint256"},{"name":"needed","type":"uint256","internalType":"uint256"}]},{"type":"error","name":"ERC20InsufficientBalance","inputs":[{"name":"sender","type":"address","internalType":"address"},{"name":"balance","type":"uint256","internalType":"uint256"},{"name":"needed","type":"uint256","internalType":"uint256"}]},{"type":"error","name":"ERC20InvalidApprover","inputs":[{"name":"approver","type":"address","internalType":"address"}]},{"type":"error","name":"ERC20InvalidReceiver","inputs":[{"name":"receiver","type":"address","internalType":"address"}]},{"type":"error","name":"ERC20InvalidSender","inputs":[{"name":"sender","type":"address","internalType":"address"}]},{"type":"error","name":"ERC20InvalidSpender","inputs":[{"name":"spender","type":"address","internalType":"address"}]},{"type":"error","name":"OnlyBondingCurve","inputs":[]},{"type":"error","name":"OnlyFactory","inputs":[]}],"bytecode":{"object":"0x60c060405234801562000010575f80fd5b5060405162000bf638038062000bf683398101604081905262000033916200014a565b8383600362000043838262000260565b50600462000052828262000260565b5050506001600160a01b039182166080521660a05250620003289050565b634e487b7160e01b5f52604160045260245ffd5b5f82601f83011262000094575f80fd5b81516001600160401b0380821115620000b157620000b162000070565b604051601f8301601f19908116603f01168101908282118183101715620000dc57620000dc62000070565b81604052838152602092508683858801011115620000f8575f80fd5b5f91505b838210156200011b5785820183015181830184015290820190620000fc565b5f93810190920192909252949350505050565b80516001600160a01b038116811462000145575f80fd5b919050565b5f805f80608085870312156200015e575f80fd5b84516001600160401b038082111562000175575f80fd5b620001838883890162000084565b9550602087015191508082111562000199575f80fd5b50620001a88782880162000084565b935050620001b9604086016200012e565b9150620001c9606086016200012e565b905092959194509250565b600181811c90821680620001e957607f821691505b6020821081036200020857634e487b7160e01b5f52602260045260245ffd5b50919050565b601f8211156200025b575f81815260208120601f850160051c81016020861015620002365750805b601f850160051c820191505b81811015620002575782815560010162000242565b5050505b505050565b81516001600160401b038111156200027c576200027c62000070565b62000294816200028d8454620001d4565b846200020e565b602080601f831160018114620002ca575f8415620002b25750858301515b5f19600386901b1c1916600185901b17855562000257565b5f85815260208120601f198616915b82811015620002fa57888601518255948401946001909101908401620002d9565b50858210156200031857878501515f19600388901b60f8161c191681555b5050505050600190811b01905550565b60805160a0516108a5620003515f395f818161022b015261032401525f6101b401526108a55ff3fe608060405234801561000f575f80fd5b50600436106100cb575f3560e01c806342966c6811610088578063a9059cbb11610063578063a9059cbb1461019c578063c45a0155146101af578063dd62ed3e146101ee578063eff1d50e14610226575f80fd5b806342966c681461015957806370a082311461016c57806395d89b4114610194575f80fd5b806306fdde03146100cf578063095ea7b3146100ed57806318160ddd1461011057806323b872dd14610122578063313ce5671461013557806340c10f1914610144575b5f80fd5b6100d761024d565b6040516100e491906106e9565b60405180910390f35b6101006100fb36600461074f565b6102dd565b60405190151581526020016100e4565b6002545b6040519081526020016100e4565b610100610130366004610777565b6102f6565b604051601281526020016100e4565b61015761015236600461074f565b610319565b005b6101576101673660046107b0565b610370565b61011461017a3660046107c7565b6001600160a01b03165f9081526020819052604090205490565b6100d761037d565b6101006101aa36600461074f565b61038c565b6101d67f000000000000000000000000000000000000000000000000000000000000000081565b6040516001600160a01b0390911681526020016100e4565b6101146101fc3660046107e7565b6001600160a01b039182165f90815260016020908152604080832093909416825291909152205490565b6101d67f000000000000000000000000000000000000000000000000000000000000000081565b60606003805461025c90610818565b80601f016020809104026020016040519081016040528092919081815260200182805461028890610818565b80156102d35780601f106102aa576101008083540402835291602001916102d3565b820191905f5260205f20905b8154815290600101906020018083116102b657829003601f168201915b5050505050905090565b5f336102ea818585610399565b60019150505b92915050565b5f336103038582856103ab565b61030e85858561042c565b506001949350505050565b336001600160a01b037f0000000000000000000000000000000000000000000000000000000000000000161461036257604051630fb54f0760e21b815260040160405180910390fd5b61036c8282610489565b5050565b61037a33826104bd565b50565b60606004805461025c90610818565b5f336102ea81858561042c565b6103a683838360016104f1565b505050565b6001600160a01b038381165f908152600160209081526040808320938616835292905220545f19811015610426578181101561041857604051637dc7a0d960e11b81526001600160a01b038416600482015260248101829052604481018390526064015b60405180910390fd5b61042684848484035f6104f1565b50505050565b6001600160a01b03831661045557604051634b637e8f60e11b81525f600482015260240161040f565b6001600160a01b03821661047e5760405163ec442f0560e01b81525f600482015260240161040f565b6103a68383836105c3565b6001600160a01b0382166104b25760405163ec442f0560e01b81525f600482015260240161040f565b61036c5f83836105c3565b6001600160a01b0382166104e657604051634b637e8f60e11b81525f600482015260240161040f565b61036c825f836105c3565b6001600160a01b03841661051a5760405163e602df0560e01b81525f600482015260240161040f565b6001600160a01b03831661054357604051634a1406b160e11b81525f600482015260240161040f565b6001600160a01b038085165f908152600160209081526040808320938716835292905220829055801561042657826001600160a01b0316846001600160a01b03167f8c5be1e5ebec7d5bd14f71427d1e84f3dd0314c0f7b2291e5b200ac8c7c3b925846040516105b591815260200190565b60405180910390a350505050565b6001600160a01b0383166105ed578060025f8282546105e29190610850565b9091555061065d9050565b6001600160a01b0383165f908152602081905260409020548181101561063f5760405163391434e360e21b81526001600160a01b0385166004820152602481018290526044810183905260640161040f565b6001600160a01b0384165f9081526020819052604090209082900390555b6001600160a01b03821661067957600280548290039055610697565b6001600160a01b0382165f9081526020819052604090208054820190555b816001600160a01b0316836001600160a01b03167fddf252ad1be2c89b69c2b068fc378daa952ba7f163c4a11628f55a4df523b3ef836040516106dc91815260200190565b60405180910390a3505050565b5f6020808352835180828501525f5b81811015610714578581018301518582016040015282016106f8565b505f604082860101526040601f19601f8301168501019250505092915050565b80356001600160a01b038116811461074a575f80fd5b919050565b5f8060408385031215610760575f80fd5b61076983610734565b946020939093013593505050565b5f805f60608486031215610789575f80fd5b61079284610734565b92506107a060208501610734565b9150604084013590509250925092565b5f602082840312156107c0575f80fd5b5035919050565b5f602082840312156107d7575f80fd5b6107e082610734565b9392505050565b5f80604083850312156107f8575f80fd5b61080183610734565b915061080f60208401610734565b90509250929050565b600181811c9082168061082c57607f821691505b60208210810361084a57634e487b7160e01b5f52602260045260245ffd5b50919050565b808201808211156102f057634e487b7160e01b5f52601160045260245ffdfea2646970667358221220cd3ad1b5122c0507b4d2e599690ec60593d46d53e06f1bed0ca53331a9c956af64736f6c63430008140033","linkReferences":{}},"methodIdentifiers":{"allowance(address,address)":"dd62ed3e","approve(address,uint256)":"095ea7b3","balanceOf(address)":"70a08231","bondingCurve()":"eff1d50e","burn(uint256)":"42966c68","decimals()":"313ce567","factory()":"c45a0155","mint(address,uint256)":"40c10f19","name()":"06fdde03","symbol()":"95d89b41","totalSupply()":"18160ddd","transfer(address,uint256)":"a9059cbb","transferFrom(address,address,uint256)":"23b872dd"},"id":31}