{"abi":[{"type":"constructor","inputs":[{"name":"_bondingCurve","type":"address","internalType":"address"}],"stateMutability":"nonpayable"},{"type":"function","name":"allLockedTokens","inputs":[{"name":"","type":"uint256","internalType":"uint256"}],"outputs":[{"name":"","type":"address","internalType":"address"}],"stateMutability":"view"},{"type":"function","name":"bondingCurve","inputs":[],"outputs":[{"name":"","type":"address","internalType":"address"}],"stateMutability":"view"},{"type":"function","name":"getAllLockedTokens","inputs":[],"outputs":[{"name":"","type":"address[]","internalType":"address[]"}],"stateMutability":"view"},{"type":"function","name":"getLockedLP","inputs":[{"name":"graduatedToken","type":"address","internalType":"address"}],"outputs":[{"name":"","type":"tuple","internalType":"struct AliveLPLocker.LockedLP","components":[{"name":"lpToken","type":"address","internalType":"address"},{"name":"amount","type":"uint256","internalType":"uint256"},{"name":"lockedAt","type":"uint256","internalType":"uint256"},{"name":"graduatedToken","type":"address","internalType":"address"}]}],"stateMutability":"view"},{"type":"function","name":"getTotalLockedCount","inputs":[],"outputs":[{"name":"","type":"uint256","internalType":"uint256"}],"stateMutability":"view"},{"type":"function","name":"isLocked","inputs":[{"name":"graduatedToken","type":"address","internalType":"address"}],"outputs":[{"name":"","type":"bool","internalType":"bool"}],"stateMutability":"view"},{"type":"function","name":"lockLP","inputs":[{"name":"graduatedToken","type":"address","internalType":"address"},{"name":"lpToken","type":"address","internalType":"address"},{"name":"amount","type":"uint256","internalType":"uint256"}],"outputs":[],"stateMutability":"nonpayable"},{"type":"function","name":"lockedLPs","inputs":[{"name":"","type":"address","internalType":"address"}],"outputs":[{"name":"lpToken","type":"address","internalType":"address"},{"name":"amount","type":"uint256","internalType":"uint256"},{"name":"lockedAt","type":"uint256","internalType":"uint256"},{"name":"graduatedToken","type":"address","internalType":"address"}],"stateMutability":"view"},{"type":"function","name":"owner","inputs":[],"outputs":[{"name":"","type":"address","internalType":"address"}],"stateMutability":"view"},{"type":"function","name":"setBondingCurve","inputs":[{"name":"_bondingCurve","type":"address","internalType":"address"}],"outputs":[],"stateMutability":"nonpayable"},{"type":"function","name":"transferOwnership","inputs":[{"name":"newOwner","type":"address","internalType":"address"}],"outputs":[],"stateMutability":"nonpayable"},{"type":"event","name":"LPLocked","inputs":[{"name":"graduatedToken","type":"address","indexed":true,"internalType":"address"},{"name":"lpToken","type":"address","indexed":true,"internalType":"address"},{"name":"amount","type":"uint256","indexed":false,"internalType":"uint256"},{"name":"timestamp","type":"uint256","indexed":false,"internalType":"uint256"}],"anonymous":false},{"type":"error","name":"AlreadyLocked","inputs":[]},{"type":"error","name":"OnlyBondingCurve","inputs":[]},{"type":"error","name":"OnlyOwner","inputs":[]},{"type":"error","name":"ZeroAddress","inputs":[]}],"bytecode":{"object":"0x608060405234801561000f575f80fd5b5060405161075a38038061075a83398101604081905261002e91610060565b5f8054336001600160a01b031991821617909155600180549091166001600160a01b039290921691909117905561008d565b5f60208284031215610070575f80fd5b81516001600160a01b0381168114610086575f80fd5b9392505050565b6106c08061009a5f395ff3fe608060405234801561000f575f80fd5b50600436106100a6575f3560e01c8063818d12c61161006e578063818d12c61461020257806381e7395f146102725780638da5cb5b14610283578063e343ebff14610295578063eff1d50e146102a8578063f2fde38b146102bb575f80fd5b8063013bf099146100aa57806320980793146100da57806343ff1fb81461019b5780634a4fbeec146101b057806362fd1683146101ed575b5f80fd5b6100bd6100b83660046105b3565b6102ce565b6040516001600160a01b0390911681526020015b60405180910390f35b61015c6100e83660046105e5565b604080516080810182525f808252602082018190529181018290526060810191909152506001600160a01b039081165f908152600260208181526040928390208351608081018552815486168152600182015492810192909252918201549281019290925260030154909116606082015290565b6040516100d1919081516001600160a01b0390811682526020808401519083015260408084015190830152606092830151169181019190915260800190565b6101ae6101a93660046105e5565b6102f6565b005b6101dd6101be3660046105e5565b6001600160a01b03165f90815260026020526040902060010154151590565b60405190151581526020016100d1565b6101f5610369565b6040516100d19190610605565b6102436102103660046105e5565b600260208190525f918252604090912080546001820154928201546003909201546001600160a01b039182169392911684565b604080516001600160a01b039586168152602081019490945283019190915290911660608201526080016100d1565b6003546040519081526020016100d1565b5f546100bd906001600160a01b031681565b6101ae6102a3366004610651565b6103c9565b6001546100bd906001600160a01b031681565b6101ae6102c93660046105e5565b610541565b600381815481106102dd575f80fd5b5f918252602090912001546001600160a01b0316905081565b5f546001600160a01b0316331461032057604051635fc483c560e01b815260040160405180910390fd5b6001600160a01b0381166103475760405163d92e233d60e01b815260040160405180910390fd5b600180546001600160a01b0319166001600160a01b0392909216919091179055565b606060038054806020026020016040519081016040528092919081815260200182805480156103bf57602002820191905f5260205f20905b81546001600160a01b031681526001909101906020018083116103a1575b5050505050905090565b6001546001600160a01b031633146103f457604051630fb54f0760e21b815260040160405180910390fd5b6001600160a01b0383165f908152600260205260409020600101541561042d576040516317c3335f60e21b815260040160405180910390fd5b6001600160a01b0382166104545760405163d92e233d60e01b815260040160405180910390fd5b604080516080810182526001600160a01b038481168083526020808401868152428587018181528a8616606088018181525f82815260028088528b82209a518b54908b166001600160a01b0319918216178c5596516001808d01919091559451908b015590516003998a018054919099169086161790975587549182018855969095527fc2575a0e9e593c00f959f8c92f12db2869c3395a3b0502d05e2516446f71f85b909401805490911685179055845186815290810192909252927f47acf5ad8c1c9f0e6c22ef89214b28dbd2bf2e3ce520d44efdf71da431e5de94910160405180910390a3505050565b5f546001600160a01b0316331461056b57604051635fc483c560e01b815260040160405180910390fd5b6001600160a01b0381166105925760405163d92e233d60e01b815260040160405180910390fd5b5f80546001600160a01b0319166001600160a01b0392909216919091179055565b5f602082840312156105c3575f80fd5b5035919050565b80356001600160a01b03811681146105e0575f80fd5b919050565b5f602082840312156105f5575f80fd5b6105fe826105ca565b9392505050565b602080825282518282018190525f9190848201906040850190845b818110156106455783516001600160a01b031683529284019291840191600101610620565b50909695505050505050565b5f805f60608486031215610663575f80fd5b61066c846105ca565b925061067a602085016105ca565b915060408401359050925092509256fea264697066735822122072bd7e40a4876ddf86a9031312206be8c94fd1a73f0bd55b92b69c149122be9e64736f6c63430008140033","linkReferences":{}},"methodIdentifiers":{"allLockedTokens(uint256)":"013bf099","bondingCurve()":"eff1d50e","getAllLockedTokens()":"62fd1683","getLockedLP(address)":"20980793","getTotalLockedCount()":"81e7395f","isLocked(address)":"4a4fbeec","lockLP(address,address,uint256)":"e343ebff","lockedLPs(address)":"818d12c6","owner()":"8da5cb5b","setBondingCurve(address)":"43ff1fb8","transferOwnership(address)":"f2fde38b"},"id":30}