{"abi":[{"type":"constructor","inputs":[{"name":"_registry","type":"address","internalType":"address"},{"name":"_bondingCurve","type":"address","internalType":"address"},{"name":"_feeTreasury","type":"address","internalType":"address"}],"stateMutability":"nonpayable"},{"type":"receive","stateMutability":"payable"},{"type":"function","name":"BPS_DENOMINATOR","inputs":[],"outputs":[{"name":"","type":"uint256","internalType":"uint256"}],"stateMutability":"view"},{"type":"function","name":"LAUNCH_FEE_BPS","inputs":[],"outputs":[{"name":"","type":"uint256","internalType":"uint256"}],"stateMutability":"view"},{"type":"function","name":"MAX_DEV_BUY","inputs":[],"outputs":[{"name":"","type":"uint256","internalType":"uint256"}],"stateMutability":"view"},{"type":"function","name":"bondingCurve","inputs":[],"outputs":[{"name":"","type":"address","internalType":"address"}],"stateMutability":"view"},{"type":"function","name":"creatorTokens","inputs":[{"name":"","type":"address","internalType":"address"},{"name":"","type":"uint256","internalType":"uint256"}],"outputs":[{"name":"","type":"address","internalType":"address"}],"stateMutability":"view"},{"type":"function","name":"feeTreasury","inputs":[],"outputs":[{"name":"","type":"address","internalType":"address"}],"stateMutability":"view"},{"type":"function","name":"getCreatorTokenCount","inputs":[{"name":"creator","type":"address","internalType":"address"}],"outputs":[{"name":"","type":"uint256","internalType":"uint256"}],"stateMutability":"view"},{"type":"function","name":"getCreatorTokens","inputs":[{"name":"creator","type":"address","internalType":"address"}],"outputs":[{"name":"","type":"address[]","internalType":"address[]"}],"stateMutability":"view"},{"type":"function","name":"launch","inputs":[{"name":"params","type":"tuple","internalType":"struct AliveTokenFactory.LaunchParams","components":[{"name":"name","type":"string","internalType":"string"},{"name":"ticker","type":"string","internalType":"string"},{"name":"metadataURI","type":"string","internalType":"string"},{"name":"feeRecipients","type":"address[]","internalType":"address[]"},{"name":"feeSplits","type":"uint256[]","internalType":"uint256[]"},{"name":"devBuyAmount","type":"uint256","internalType":"uint256"}]}],"outputs":[{"name":"token","type":"address","internalType":"address"}],"stateMutability":"payable"},{"type":"function","name":"owner","inputs":[],"outputs":[{"name":"","type":"address","internalType":"address"}],"stateMutability":"view"},{"type":"function","name":"registry","inputs":[],"outputs":[{"name":"","type":"address","internalType":"address"}],"stateMutability":"view"},{"type":"function","name":"setBondingCurve","inputs":[{"name":"_bondingCurve","type":"address","internalType":"address"}],"outputs":[],"stateMutability":"nonpayable"},{"type":"function","name":"setFeeTreasury","inputs":[{"name":"_feeTreasury","type":"address","internalType":"address"}],"outputs":[],"stateMutability":"nonpayable"},{"type":"function","name":"setRegistry","inputs":[{"name":"_registry","type":"address","internalType":"address"}],"outputs":[],"stateMutability":"nonpayable"},{"type":"function","name":"totalLaunches","inputs":[],"outputs":[{"name":"","type":"uint256","internalType":"uint256"}],"stateMutability":"view"},{"type":"function","name":"transferOwnership","inputs":[{"name":"newOwner","type":"address","internalType":"address"}],"outputs":[],"stateMutability":"nonpayable"},{"type":"event","name":"TokenLaunched","inputs":[{"name":"token","type":"address","indexed":true,"internalType":"address"},{"name":"name","type":"string","indexed":false,"internalType":"string"},{"name":"ticker","type":"string","indexed":false,"internalType":"string"},{"name":"creator","type":"address","indexed":true,"internalType":"address"},{"name":"devBuy","type":"uint256","indexed":false,"internalType":"uint256"},{"name":"timestamp","type":"uint256","indexed":false,"internalType":"uint256"}],"anonymous":false},{"type":"error","name":"DevBuyTooHigh","inputs":[]},{"type":"error","name":"InsufficientFee","inputs":[]},{"type":"error","name":"InvalidTicker","inputs":[]},{"type":"error","name":"OnlyOwner","inputs":[]},{"type":"error","name":"TransferFailed","inputs":[]},{"type":"error","name":"ZeroAddress","inputs":[]}],"bytecode":{"object":"0x608060405234801561000f575f80fd5b506040516119f83803806119f883398101604081905261002e91610095565b5f80546001600160a01b03199081163317909155600180546001600160a01b039586169083161790556002805493851693821693909317909255600380549190931691161790556100d5565b80516001600160a01b0381168114610090575f80fd5b919050565b5f805f606084860312156100a7575f80fd5b6100b08461007a565b92506100be6020850161007a565b91506100cc6040850161007a565b90509250925092565b611916806100e25f395ff3fe60806040526004361062000106575f3560e01c80638da5cb5b1162000092578063db3fa4cc116200005e578063db3fa4cc14620002da578063e1a4521814620002fe578063eff1d50e1462000315578063f2fde38b1462000336575f80fd5b80638da5cb5b146200023a578063a91ee0dc146200025a578063bfa37e37146200027e578063c6d8a04a14620002a2575f80fd5b806348dfd57811620000d257806348dfd57814620001a857806360dc234014620001c557806374abfa5414620001e65780637b1039991462000219575f80fd5b80630e883f8b1462000112578063385eeb6a146200013c57806343ff1fb81462000152578063458ae21c1462000178575f80fd5b366200010e57005b5f80fd5b3480156200011e575f80fd5b506200012960045481565b6040519081526020015b60405180910390f35b34801562000148575f80fd5b5062000129606481565b3480156200015e575f80fd5b50620001766200017036600462000a0a565b6200035a565b005b6200018f6200018936600462000a2d565b620003cf565b6040516001600160a01b03909116815260200162000133565b348015620001b4575f80fd5b5062000129674563918244f4000081565b348015620001d1575f80fd5b506003546200018f906001600160a01b031681565b348015620001f2575f80fd5b506200020a6200020436600462000a0a565b620007d8565b60405162000133919062000a67565b34801562000225575f80fd5b506001546200018f906001600160a01b031681565b34801562000246575f80fd5b505f546200018f906001600160a01b031681565b34801562000266575f80fd5b50620001766200027836600462000a0a565b6200084d565b3480156200028a575f80fd5b50620001766200029c36600462000a0a565b620008c2565b348015620002ae575f80fd5b5062000129620002c036600462000a0a565b6001600160a01b03165f9081526005602052604090205490565b348015620002e6575f80fd5b506200018f620002f836600462000ab5565b62000937565b3480156200030a575f80fd5b506200012961271081565b34801562000321575f80fd5b506002546200018f906001600160a01b031681565b34801562000342575f80fd5b50620001766200035436600462000a0a565b6200096c565b5f546001600160a01b031633146200038557604051635fc483c560e01b815260040160405180910390fd5b6001600160a01b038116620003ad5760405163d92e233d60e01b815260040160405180910390fd5b600280546001600160a01b0319166001600160a01b0392909216919091179055565b5f620003df602083018362000ae0565b15905080620003fe57506006620003fa602084018462000ae0565b9050115b156200041d57604051634e75af3960e11b815260040160405180910390fd5b674563918244f400008260a0013511156200044b576040516354f0f12960e01b815260040160405180910390fd5b5f61271062000460606460a086013562000b41565b6200046c919062000b61565b9050662386f26fc10000811015620004885750662386f26fc100005b5f6200049960a08501358362000b81565b905080341015620004bc5760405162976f7560e21b815260040160405180910390fd5b620004c8848062000ae0565b620004d7602087018762000ae0565b60025460405130916001600160a01b031690620004f490620009e0565b620005059695949392919062000bbf565b604051809103905ff0801580156200051f573d5f803e3d5ffd5b506001549093506001600160a01b031663ca0e1a938462000541878062000ae0565b6200055060208a018a62000ae0565b6200055f60408c018c62000ae0565b336040518963ffffffff1660e01b81526004016200058598979695949392919062000c10565b5f604051808303815f87803b1580156200059d575f80fd5b505af1158015620005b0573d5f803e3d5ffd5b5050600254604051632f11793960e11b81526001600160a01b03878116600483015260a08901356024830181905233604484015292169350635e22f27292506064015f604051808303818588803b1580156200060a575f80fd5b505af11580156200061d573d5f803e3d5ffd5b50505050505f821115620006a1576003546040515f916001600160a01b03169084908381818185875af1925050503d805f811462000677576040519150601f19603f3d011682016040523d82523d5f602084013e6200067c565b606091505b50509050806200069f576040516312171d8360e31b815260040160405180910390fd5b505b5f620006ae823462000c79565b9050801562000722576040515f90339083908381818185875af1925050503d805f8114620006f8576040519150601f19603f3d011682016040523d82523d5f602084013e620006fd565b606091505b505090508062000720576040516312171d8360e31b815260040160405180910390fd5b505b60048054905f620007338362000c8f565b9091555050335f8181526005602090815260408220805460018101825590835291200180546001600160a01b0319166001600160a01b0387169081179091557f83c17adb8936b01b329cb26797b66c8928d5c8ebc2e06d972b93533a0d0e06166200079f888062000ae0565b620007ae60208b018b62000ae0565b8b60a0013542604051620007c89695949392919062000caa565b60405180910390a3505050919050565b6001600160a01b0381165f908152600560209081526040918290208054835181840281018401909452808452606093928301828280156200084157602002820191905f5260205f20905b81546001600160a01b0316815260019091019060200180831162000822575b50505050509050919050565b5f546001600160a01b031633146200087857604051635fc483c560e01b815260040160405180910390fd5b6001600160a01b038116620008a05760405163d92e233d60e01b815260040160405180910390fd5b600180546001600160a01b0319166001600160a01b0392909216919091179055565b5f546001600160a01b03163314620008ed57604051635fc483c560e01b815260040160405180910390fd5b6001600160a01b038116620009155760405163d92e233d60e01b815260040160405180910390fd5b600380546001600160a01b0319166001600160a01b0392909216919091179055565b6005602052815f5260405f20818154811062000951575f80fd5b5f918252602090912001546001600160a01b03169150829050565b5f546001600160a01b031633146200099757604051635fc483c560e01b815260040160405180910390fd5b6001600160a01b038116620009bf5760405163d92e233d60e01b815260040160405180910390fd5b5f80546001600160a01b0319166001600160a01b0392909216919091179055565b610bf68062000ceb83390190565b80356001600160a01b038116811462000a05575f80fd5b919050565b5f6020828403121562000a1b575f80fd5b62000a2682620009ee565b9392505050565b5f6020828403121562000a3e575f80fd5b813567ffffffffffffffff81111562000a55575f80fd5b820160c0818503121562000a26575f80fd5b602080825282518282018190525f9190848201906040850190845b8181101562000aa95783516001600160a01b03168352928401929184019160010162000a82565b50909695505050505050565b5f806040838503121562000ac7575f80fd5b62000ad283620009ee565b946020939093013593505050565b5f808335601e1984360301811262000af6575f80fd5b83018035915067ffffffffffffffff82111562000b11575f80fd5b60200191503681900382131562000b26575f80fd5b9250929050565b634e487b7160e01b5f52601160045260245ffd5b808202811582820484141762000b5b5762000b5b62000b2d565b92915050565b5f8262000b7c57634e487b7160e01b5f52601260045260245ffd5b500490565b8082018082111562000b5b5762000b5b62000b2d565b81835281816020850137505f828201602090810191909152601f909101601f19169091010190565b608081525f62000bd460808301888a62000b97565b828103602084015262000be981878962000b97565b6001600160a01b039586166040850152939094166060909201919091525095945050505050565b5f60018060a01b03808b16835260a0602084015262000c3460a084018a8c62000b97565b838103604085015262000c4981898b62000b97565b9050838103606085015262000c6081878962000b97565b9250508084166080840152509998505050505050505050565b8181038181111562000b5b5762000b5b62000b2d565b5f6001820162000ca35762000ca362000b2d565b5060010190565b608081525f62000cbf60808301888a62000b97565b828103602084015262000cd481878962000b97565b604084019590955250506060015294935050505056fe60c060405234801562000010575f80fd5b5060405162000bf638038062000bf683398101604081905262000033916200014a565b8383600362000043838262000260565b50600462000052828262000260565b5050506001600160a01b039182166080521660a05250620003289050565b634e487b7160e01b5f52604160045260245ffd5b5f82601f83011262000094575f80fd5b81516001600160401b0380821115620000b157620000b162000070565b604051601f8301601f19908116603f01168101908282118183101715620000dc57620000dc62000070565b81604052838152602092508683858801011115620000f8575f80fd5b5f91505b838210156200011b5785820183015181830184015290820190620000fc565b5f93810190920192909252949350505050565b80516001600160a01b038116811462000145575f80fd5b919050565b5f805f80608085870312156200015e575f80fd5b84516001600160401b038082111562000175575f80fd5b620001838883890162000084565b9550602087015191508082111562000199575f80fd5b50620001a88782880162000084565b935050620001b9604086016200012e565b9150620001c9606086016200012e565b905092959194509250565b600181811c90821680620001e957607f821691505b6020821081036200020857634e487b7160e01b5f52602260045260245ffd5b50919050565b601f8211156200025b575f81815260208120601f850160051c81016020861015620002365750805b601f850160051c820191505b81811015620002575782815560010162000242565b5050505b505050565b81516001600160401b038111156200027c576200027c62000070565b62000294816200028d8454620001d4565b846200020e565b602080601f831160018114620002ca575f8415620002b25750858301515b5f19600386901b1c1916600185901b17855562000257565b5f85815260208120601f198616915b82811015620002fa57888601518255948401946001909101908401620002d9565b50858210156200031857878501515f19600388901b60f8161c191681555b5050505050600190811b01905550565b60805160a0516108a5620003515f395f818161022b015261032401525f6101b401526108a55ff3fe608060405234801561000f575f80fd5b50600436106100cb575f3560e01c806342966c6811610088578063a9059cbb11610063578063a9059cbb1461019c578063c45a0155146101af578063dd62ed3e146101ee578063eff1d50e14610226575f80fd5b806342966c681461015957806370a082311461016c57806395d89b4114610194575f80fd5b806306fdde03146100cf578063095ea7b3146100ed57806318160ddd1461011057806323b872dd14610122578063313ce5671461013557806340c10f1914610144575b5f80fd5b6100d761024d565b6040516100e491906106e9565b60405180910390f35b6101006100fb36600461074f565b6102dd565b60405190151581526020016100e4565b6002545b6040519081526020016100e4565b610100610130366004610777565b6102f6565b604051601281526020016100e4565b61015761015236600461074f565b610319565b005b6101576101673660046107b0565b610370565b61011461017a3660046107c7565b6001600160a01b03165f9081526020819052604090205490565b6100d761037d565b6101006101aa36600461074f565b61038c565b6101d67f000000000000000000000000000000000000000000000000000000000000000081565b6040516001600160a01b0390911681526020016100e4565b6101146101fc3660046107e7565b6001600160a01b039182165f90815260016020908152604080832093909416825291909152205490565b6101d67f000000000000000000000000000000000000000000000000000000000000000081565b60606003805461025c90610818565b80601f016020809104026020016040519081016040528092919081815260200182805461028890610818565b80156102d35780601f106102aa576101008083540402835291602001916102d3565b820191905f5260205f20905b8154815290600101906020018083116102b657829003601f168201915b5050505050905090565b5f336102ea818585610399565b60019150505b92915050565b5f336103038582856103ab565b61030e85858561042c565b506001949350505050565b336001600160a01b037f0000000000000000000000000000000000000000000000000000000000000000161461036257604051630fb54f0760e21b815260040160405180910390fd5b61036c8282610489565b5050565b61037a33826104bd565b50565b60606004805461025c90610818565b5f336102ea81858561042c565b6103a683838360016104f1565b505050565b6001600160a01b038381165f908152600160209081526040808320938616835292905220545f19811015610426578181101561041857604051637dc7a0d960e11b81526001600160a01b038416600482015260248101829052604481018390526064015b60405180910390fd5b61042684848484035f6104f1565b50505050565b6001600160a01b03831661045557604051634b637e8f60e11b81525f600482015260240161040f565b6001600160a01b03821661047e5760405163ec442f0560e01b81525f600482015260240161040f565b6103a68383836105c3565b6001600160a01b0382166104b25760405163ec442f0560e01b81525f600482015260240161040f565b61036c5f83836105c3565b6001600160a01b0382166104e657604051634b637e8f60e11b81525f600482015260240161040f565b61036c825f836105c3565b6001600160a01b03841661051a5760405163e602df0560e01b81525f600482015260240161040f565b6001600160a01b03831661054357604051634a1406b160e11b81525f600482015260240161040f565b6001600160a01b038085165f908152600160209081526040808320938716835292905220829055801561042657826001600160a01b0316846001600160a01b03167f8c5be1e5ebec7d5bd14f71427d1e84f3dd0314c0f7b2291e5b200ac8c7c3b925846040516105b591815260200190565b60405180910390a350505050565b6001600160a01b0383166105ed578060025f8282546105e29190610850565b9091555061065d9050565b6001600160a01b0383165f908152602081905260409020548181101561063f5760405163391434e360e21b81526001600160a01b0385166004820152602481018290526044810183905260640161040f565b6001600160a01b0384165f9081526020819052604090209082900390555b6001600160a01b03821661067957600280548290039055610697565b6001600160a01b0382165f9081526020819052604090208054820190555b816001600160a01b0316836001600160a01b03167fddf252ad1be2c89b69c2b068fc378daa952ba7f163c4a11628f55a4df523b3ef836040516106dc91815260200190565b60405180910390a3505050565b5f6020808352835180828501525f5b81811015610714578581018301518582016040015282016106f8565b505f604082860101526040601f19601f8301168501019250505092915050565b80356001600160a01b038116811461074a575f80fd5b919050565b5f8060408385031215610760575f80fd5b61076983610734565b946020939093013593505050565b5f805f60608486031215610789575f80fd5b61079284610734565b92506107a060208501610734565b9150604084013590509250925092565b5f602082840312156107c0575f80fd5b5035919050565b5f602082840312156107d7575f80fd5b6107e082610734565b9392505050565b5f80604083850312156107f8575f80fd5b61080183610734565b915061080f60208401610734565b90509250929050565b600181811c9082168061082c57607f821691505b60208210810361084a57634e487b7160e01b5f52602260045260245ffd5b50919050565b808201808211156102f057634e487b7160e01b5f52601160045260245ffdfea2646970667358221220cd3ad1b5122c0507b4d2e599690ec60593d46d53e06f1bed0ca53331a9c956af64736f6c63430008140033a2646970667358221220a5364e4f01b15727b0559c9c0bc2c468b173856034fcb694ca0cf6a72aff0a5a64736f6c63430008140033","linkReferences":{}},"methodIdentifiers":{"BPS_DENOMINATOR()":"e1a45218","LAUNCH_FEE_BPS()":"385eeb6a","MAX_DEV_BUY()":"48dfd578","bondingCurve()":"eff1d50e","creatorTokens(address,uint256)":"db3fa4cc","feeTreasury()":"60dc2340","getCreatorTokenCount(address)":"c6d8a04a","getCreatorTokens(address)":"74abfa54","launch((string,string,string,address[],uint256[],uint256))":"458ae21c","owner()":"8da5cb5b","registry()":"7b103999","setBondingCurve(address)":"43ff1fb8","setFeeTreasury(address)":"bfa37e37","setRegistry(address)":"a91ee0dc","totalLaunches()":"0e883f8b","transferOwnership(address)":"f2fde38b"},"id":32}