{"abi":[{"type":"constructor","inputs":[{"name":"_owner","type":"address","internalType":"address"}],"stateMutability":"nonpayable"},{"type":"function","name":"DRAIN_COEFFICIENT","inputs":[],"outputs":[{"name":"","type":"uint256","internalType":"uint256"}],"stateMutability":"view"},{"type":"function","name":"HEAL_COEFFICIENT","inputs":[],"outputs":[{"name":"","type":"uint256","internalType":"uint256"}],"stateMutability":"view"},{"type":"function","name":"MAX_VITALITY","inputs":[],"outputs":[{"name":"","type":"uint256","internalType":"uint256"}],"stateMutability":"view"},{"type":"function","name":"VITALITY_DECAY_RATE","inputs":[],"outputs":[{"name":"","type":"uint256","internalType":"uint256"}],"stateMutability":"view"},{"type":"function","name":"allCharacters","inputs":[{"name":"","type":"uint256","internalType":"uint256"}],"outputs":[{"name":"","type":"address","internalType":"address"}],"stateMutability":"view"},{"type":"function","name":"bondingCurve","inputs":[],"outputs":[{"name":"","type":"address","internalType":"address"}],"stateMutability":"view"},{"type":"function","name":"calculateBuyHeal","inputs":[{"name":"okbAmount","type":"uint256","internalType":"uint256"}],"outputs":[{"name":"","type":"uint256","internalType":"uint256"}],"stateMutability":"pure"},{"type":"function","name":"calculateSellDrain","inputs":[{"name":"okbAmount","type":"uint256","internalType":"uint256"}],"outputs":[{"name":"","type":"uint256","internalType":"uint256"}],"stateMutability":"pure"},{"type":"function","name":"characters","inputs":[{"name":"","type":"address","internalType":"address"}],"outputs":[{"name":"token","type":"address","internalType":"address"},{"name":"name","type":"string","internalType":"string"},{"name":"ticker","type":"string","internalType":"string"},{"name":"metadataURI","type":"string","internalType":"string"},{"name":"creator","type":"address","internalType":"address"},{"name":"vitality","type":"uint256","internalType":"uint256"},{"name":"lastTradeTime","type":"uint256","internalType":"uint256"},{"name":"graduated","type":"bool","internalType":"bool"}],"stateMutability":"view"},{"type":"function","name":"factory","inputs":[],"outputs":[{"name":"","type":"address","internalType":"address"}],"stateMutability":"view"},{"type":"function","name":"getAllCharacters","inputs":[],"outputs":[{"name":"","type":"address[]","internalType":"address[]"}],"stateMutability":"view"},{"type":"function","name":"getCharacter","inputs":[{"name":"token","type":"address","internalType":"address"}],"outputs":[{"name":"","type":"tuple","internalType":"struct IAliveCharacterRegistry.Character","components":[{"name":"token","type":"address","internalType":"address"},{"name":"name","type":"string","internalType":"string"},{"name":"ticker","type":"string","internalType":"string"},{"name":"metadataURI","type":"string","internalType":"string"},{"name":"creator","type":"address","internalType":"address"},{"name":"vitality","type":"uint256","internalType":"uint256"},{"name":"lastTradeTime","type":"uint256","internalType":"uint256"},{"name":"graduated","type":"bool","internalType":"bool"}]}],"stateMutability":"view"},{"type":"function","name":"getCharacterCount","inputs":[],"outputs":[{"name":"","type":"uint256","internalType":"uint256"}],"stateMutability":"view"},{"type":"function","name":"getCurrentVitality","inputs":[{"name":"token","type":"address","internalType":"address"}],"outputs":[{"name":"","type":"uint256","internalType":"uint256"}],"stateMutability":"view"},{"type":"function","name":"isRegistered","inputs":[{"name":"token","type":"address","internalType":"address"}],"outputs":[{"name":"","type":"bool","internalType":"bool"}],"stateMutability":"view"},{"type":"function","name":"markGraduated","inputs":[{"name":"token","type":"address","internalType":"address"}],"outputs":[],"stateMutability":"nonpayable"},{"type":"function","name":"owner","inputs":[],"outputs":[{"name":"","type":"address","internalType":"address"}],"stateMutability":"view"},{"type":"function","name":"registerCharacter","inputs":[{"name":"token","type":"address","internalType":"address"},{"name":"name_","type":"string","internalType":"string"},{"name":"ticker","type":"string","internalType":"string"},{"name":"metadataURI","type":"string","internalType":"string"},{"name":"creator","type":"address","internalType":"address"}],"outputs":[],"stateMutability":"nonpayable"},{"type":"function","name":"registered","inputs":[{"name":"","type":"address","internalType":"address"}],"outputs":[{"name":"","type":"bool","internalType":"bool"}],"stateMutability":"view"},{"type":"function","name":"setBondingCurve","inputs":[{"name":"_bondingCurve","type":"address","internalType":"address"}],"outputs":[],"stateMutability":"nonpayable"},{"type":"function","name":"setFactory","inputs":[{"name":"_factory","type":"address","internalType":"address"}],"outputs":[],"stateMutability":"nonpayable"},{"type":"function","name":"updateVitality","inputs":[{"name":"token","type":"address","internalType":"address"},{"name":"newVitality","type":"uint256","internalType":"uint256"}],"outputs":[],"stateMutability":"nonpayable"},{"type":"event","name":"CharacterGraduated","inputs":[{"name":"token","type":"address","indexed":true,"internalType":"address"}],"anonymous":false},{"type":"event","name":"CharacterRegistered","inputs":[{"name":"token","type":"address","indexed":true,"internalType":"address"},{"name":"name","type":"string","indexed":false,"internalType":"string"},{"name":"ticker","type":"string","indexed":false,"internalType":"string"},{"name":"creator","type":"address","indexed":false,"internalType":"address"}],"anonymous":false},{"type":"event","name":"VitalityUpdated","inputs":[{"name":"token","type":"address","indexed":true,"internalType":"address"},{"name":"oldVitality","type":"uint256","indexed":false,"internalType":"uint256"},{"name":"newVitality","type":"uint256","indexed":false,"internalType":"uint256"}],"anonymous":false},{"type":"error","name":"AlreadyRegistered","inputs":[]},{"type":"error","name":"NotRegistered","inputs":[]},{"type":"error","name":"OnlyBondingCurve","inputs":[]},{"type":"error","name":"OnlyFactory","inputs":[]},{"type":"error","name":"OnlyOwner","inputs":[]},{"type":"error","name":"ZeroAddress","inputs":[]}],"bytecode":{"object":"0x608060405234801561000f575f80fd5b506040516116b43803806116b483398101604081905261002e9161007a565b6001600160a01b0381166100555760405163d92e233d60e01b815260040160405180910390fd5b600280546001600160a01b0319166001600160a01b03929092169190911790556100a7565b5f6020828403121561008a575f80fd5b81516001600160a01b03811681146100a0575f80fd5b9392505050565b611600806100b45f395ff3fe608060405234801561000f575f80fd5b506004361061013d575f3560e01c8063a0987264116100b4578063c3c5a54711610079578063c3c5a547146102a8578063c45a0155146102d3578063ca0e1a93146102e5578063ebd0c91c146102f8578063ef18ea2714610318578063eff1d50e14610320575f80fd5b8063a098726414610235578063b2dd5c0714610248578063b3d78bb11461027a578063ba48bb0c1461028d578063c27288e7146102a0575f80fd5b80634e216553116101055780634e216553146101c25780635bb47808146101cb57806365df8ce7146101de57806383e56dca146101e65780638da5cb5b146101fb57806397c2114f1461020e575f80fd5b806306c634551461014157806317b7b61b146101675780631c671dff146101925780633499a5af1461019a57806343ff1fb8146101ad575b5f80fd5b61015461014f366004611076565b610333565b6040519081526020015b60405180910390f35b61017a610175366004611076565b610358565b6040516001600160a01b03909116815260200161015e565b610154600a81565b6101546101a8366004611076565b610380565b6101c06101bb3660046110a8565b610395565b005b61015461271081565b6101c06101d93660046110a8565b610409565b600554610154565b6101ee61047c565b60405161015e91906110c8565b60025461017a906001600160a01b031681565b61022161021c3660046110a8565b6104dc565b60405161015e989796959493929190611157565b6101c06102433660046110a8565b6106c6565b61026a6102563660046110a8565b60046020525f908152604090205460ff1681565b604051901515815260200161015e565b6101546102883660046110a8565b610777565b6101c061029b3660046111cd565b610a18565b610154606481565b61026a6102b63660046110a8565b6001600160a01b03165f9081526004602052604090205460ff1690565b5f5461017a906001600160a01b031681565b6101c06102f336600461123a565b610b14565b61030b6103063660046110a8565b610dff565b60405161015e91906112ed565b610154609681565b60015461017a906001600160a01b031681565b5f670de0b6b3a76400006103486064846113c2565b61035291906113d9565b92915050565b60058181548110610367575f80fd5b5f918252602090912001546001600160a01b0316905081565b5f670de0b6b3a76400006103486096846113c2565b6002546001600160a01b031633146103c057604051635fc483c560e01b815260040160405180910390fd5b6001600160a01b0381166103e75760405163d92e233d60e01b815260040160405180910390fd5b600180546001600160a01b0319166001600160a01b0392909216919091179055565b6002546001600160a01b0316331461043457604051635fc483c560e01b815260040160405180910390fd5b6001600160a01b03811661045b5760405163d92e233d60e01b815260040160405180910390fd5b5f80546001600160a01b0319166001600160a01b0392909216919091179055565b606060058054806020026020016040519081016040528092919081815260200182805480156104d257602002820191905f5260205f20905b81546001600160a01b031681526001909101906020018083116104b4575b5050505050905090565b60036020525f9081526040902080546001820180546001600160a01b039092169291610507906113f8565b80601f0160208091040260200160405190810160405280929190818152602001828054610533906113f8565b801561057e5780601f106105555761010080835404028352916020019161057e565b820191905f5260205f20905b81548152906001019060200180831161056157829003601f168201915b505050505090806002018054610593906113f8565b80601f01602080910402602001604051908101604052809291908181526020018280546105bf906113f8565b801561060a5780601f106105e15761010080835404028352916020019161060a565b820191905f5260205f20905b8154815290600101906020018083116105ed57829003601f168201915b50505050509080600301805461061f906113f8565b80601f016020809104026020016040519081016040528092919081815260200182805461064b906113f8565b80156106965780601f1061066d57610100808354040283529160200191610696565b820191905f5260205f20905b81548152906001019060200180831161067957829003601f168201915b5050505060048301546005840154600685015460079095015493946001600160a01b039092169390925060ff1688565b6001546001600160a01b031633146106f157604051630fb54f0760e21b815260040160405180910390fd5b6001600160a01b0381165f9081526004602052604090205460ff166107295760405163aba4733960e01b815260040160405180910390fd5b6001600160a01b0381165f81815260036020526040808220600701805460ff19166001179055517f370a0e152ffaf89dc65c786556799b367358d516292573f1172a5647a90648699190a250565b6001600160a01b0381165f9081526004602052604081205460ff1661079d57505f919050565b6001600160a01b038083165f90815260036020908152604080832081516101008101909252805490941681526001840180549394919391928401916107e1906113f8565b80601f016020809104026020016040519081016040528092919081815260200182805461080d906113f8565b80156108585780601f1061082f57610100808354040283529160200191610858565b820191905f5260205f20905b81548152906001019060200180831161083b57829003601f168201915b50505050508152602001600282018054610871906113f8565b80601f016020809104026020016040519081016040528092919081815260200182805461089d906113f8565b80156108e85780601f106108bf576101008083540402835291602001916108e8565b820191905f5260205f20905b8154815290600101906020018083116108cb57829003601f168201915b50505050508152602001600382018054610901906113f8565b80601f016020809104026020016040519081016040528092919081815260200182805461092d906113f8565b80156109785780601f1061094f57610100808354040283529160200191610978565b820191905f5260205f20905b81548152906001019060200180831161095b57829003601f168201915b505050918352505060048201546001600160a01b03166020820152600582015460408201526006820154606082015260079091015460ff16151560809091015260c08101519091505f90610e10906109d09042611430565b6109da91906113d9565b90505f6109e8600a836113c2565b90508260a0015181106109ff57505f949350505050565b808360a00151610a0f9190611430565b95945050505050565b6001546001600160a01b03163314610a4357604051630fb54f0760e21b815260040160405180910390fd5b6001600160a01b0382165f9081526004602052604090205460ff16610a7b5760405163aba4733960e01b815260040160405180910390fd5b6001600160a01b0382165f908152600360205260409020600501546127108211610aa55781610aa9565b6127105b6001600160a01b0384165f818152600360205260409081902060058101849055426006909101555190917f0b455be0c77127a4af822900aed37d161c8886f776f830c8b5ce6754647eab1391610b0791858252602082015260400190565b60405180910390a2505050565b5f546001600160a01b03163314610b3e57604051630636a15760e11b815260040160405180910390fd5b6001600160a01b0388165f9081526004602052604090205460ff1615610b7757604051630ea075bf60e21b815260040160405180910390fd5b6001600160a01b0388161580610b9457506001600160a01b038116155b15610bb25760405163d92e233d60e01b815260040160405180910390fd5b604051806101000160405280896001600160a01b0316815260200188888080601f0160208091040260200160405190810160405280939291908181526020018383808284375f92019190915250505090825250604080516020601f8901819004810282018101909252878152918101919088908890819084018382808284375f92019190915250505090825250604080516020601f8701819004810282018101909252858152918101919086908690819084018382808284375f9201829052509385525050506001600160a01b0384811660208085019190915261271060408086019190915242606086015260809094018390528c821683526003815292909120835181546001600160a01b0319169216919091178155908201516001820190610cdc90826114a5565b5060408201516002820190610cf190826114a5565b5060608201516003820190610d0690826114a5565b506080820151600480830180546001600160a01b039384166001600160a01b03199182161790915560a085015160058086019190915560c0860151600686015560e0909501516007909401805494151560ff19958616179055918c165f81815260209290925260408083208054909516600190811790955585549485018655949091527f036b6384b5eca791c62761152d0c79bb0604c104a5fb6f4eb0703f3154bb3db090920180549091168217905590517fa42b1740f8fafb3206d7ff2565aedf0d50e5080d3cefa4165a6aafa5c0e3c6fc90610ded908a908a908a908a908890611589565b60405180910390a25050505050505050565b610e566040518061010001604052805f6001600160a01b031681526020016060815260200160608152602001606081526020015f6001600160a01b031681526020015f81526020015f81526020015f151581525090565b6001600160a01b038083165f90815260036020908152604091829020825161010081019093528054909316825260018301805492939291840191610e99906113f8565b80601f0160208091040260200160405190810160405280929190818152602001828054610ec5906113f8565b8015610f105780601f10610ee757610100808354040283529160200191610f10565b820191905f5260205f20905b815481529060010190602001808311610ef357829003601f168201915b50505050508152602001600282018054610f29906113f8565b80601f0160208091040260200160405190810160405280929190818152602001828054610f55906113f8565b8015610fa05780601f10610f7757610100808354040283529160200191610fa0565b820191905f5260205f20905b815481529060010190602001808311610f8357829003601f168201915b50505050508152602001600382018054610fb9906113f8565b80601f0160208091040260200160405190810160405280929190818152602001828054610fe5906113f8565b80156110305780601f1061100757610100808354040283529160200191611030565b820191905f5260205f20905b81548152906001019060200180831161101357829003601f168201915b505050918352505060048201546001600160a01b03166020820152600582015460408201526006820154606082015260079091015460ff16151560809091015292915050565b5f60208284031215611086575f80fd5b5035919050565b80356001600160a01b03811681146110a3575f80fd5b919050565b5f602082840312156110b8575f80fd5b6110c18261108d565b9392505050565b602080825282518282018190525f9190848201906040850190845b818110156111085783516001600160a01b0316835292840192918401916001016110e3565b50909695505050505050565b5f81518084525f5b818110156111385760208185018101518683018201520161111c565b505f602082860101526020601f19601f83011685010191505092915050565b6001600160a01b038981168252610100602083018190525f9161117c8483018c611114565b91508382036040850152611190828b611114565b915083820360608501526111a4828a611114565b97166080840152505060a081019390935260c0830191909152151560e090910152949350505050565b5f80604083850312156111de575f80fd5b6111e78361108d565b946020939093013593505050565b5f8083601f840112611205575f80fd5b50813567ffffffffffffffff81111561121c575f80fd5b602083019150836020828501011115611233575f80fd5b9250929050565b5f805f805f805f8060a0898b031215611251575f80fd5b61125a8961108d565b9750602089013567ffffffffffffffff80821115611276575f80fd5b6112828c838d016111f5565b909950975060408b013591508082111561129a575f80fd5b6112a68c838d016111f5565b909750955060608b01359150808211156112be575f80fd5b506112cb8b828c016111f5565b90945092506112de905060808a0161108d565b90509295985092959890939650565b602081526113076020820183516001600160a01b03169052565b5f6020830151610100806040850152611324610120850183611114565b91506040850151601f19808685030160608701526113428483611114565b93506060870151915080868503016080870152506113608382611114565b925050608085015161137d60a08601826001600160a01b03169052565b5060a085015160c085015260c085015160e085015260e08501516113a48286018215159052565b5090949350505050565b634e487b7160e01b5f52601160045260245ffd5b8082028115828204841417610352576103526113ae565b5f826113f357634e487b7160e01b5f52601260045260245ffd5b500490565b600181811c9082168061140c57607f821691505b60208210810361142a57634e487b7160e01b5f52602260045260245ffd5b50919050565b81810381811115610352576103526113ae565b634e487b7160e01b5f52604160045260245ffd5b601f8211156114a0575f81815260208120601f850160051c8101602086101561147d5750805b601f850160051c820191505b8181101561149c57828155600101611489565b5050505b505050565b815167ffffffffffffffff8111156114bf576114bf611443565b6114d3816114cd84546113f8565b84611457565b602080601f831160018114611506575f84156114ef5750858301515b5f19600386901b1c1916600185901b17855561149c565b5f85815260208120601f198616915b8281101561153457888601518255948401946001909101908401611515565b508582101561155157878501515f19600388901b60f8161c191681555b5050505050600190811b01905550565b81835281816020850137505f828201602090810191909152601f909101601f19169091010190565b606081525f61159c606083018789611561565b82810360208401526115af818688611561565b91505060018060a01b0383166040830152969550505050505056fea2646970667358221220291a7f959de92bf61cfa40334a80851337c4755f45db360fc23d9b6436ee92b564736f6c63430008140033","linkReferences":{}},"methodIdentifiers":{"DRAIN_COEFFICIENT()":"ef18ea27","HEAL_COEFFICIENT()":"c27288e7","MAX_VITALITY()":"4e216553","VITALITY_DECAY_RATE()":"1c671dff","allCharacters(uint256)":"17b7b61b","bondingCurve()":"eff1d50e","calculateBuyHeal(uint256)":"06c63455","calculateSellDrain(uint256)":"3499a5af","characters(address)":"97c2114f","factory()":"c45a0155","getAllCharacters()":"83e56dca","getCharacter(address)":"ebd0c91c","getCharacterCount()":"65df8ce7","getCurrentVitality(address)":"b3d78bb1","isRegistered(address)":"c3c5a547","markGraduated(address)":"a0987264","owner()":"8da5cb5b","registerCharacter(address,string,string,string,address)":"ca0e1a93","registered(address)":"b2dd5c07","setBondingCurve(address)":"43ff1fb8","setFactory(address)":"5bb47808","updateVitality(address,uint256)":"ba48bb0c"},"id":28}